:1000000000000120750300005D0300005F03000095
:1000100061030000630300006503000000000000AE
:100020000000000000000000000000006703000066
:1000300069030000000000006B0300006D03000076
:1000400009C200006F03000015C600006F03000026
:100050006F0300006F030000C5C400006F030000C1
:100060006F0300006F0300006F0300006F030000C8
:100070006F03000031C700006F0300006F03000032
:100080006F0300000D1300006F0300006F030000FA
:100090006F0300006F0300008D3601006F03000046
:1000A0006F0300006F0300006F0300006F03000088
:1000B0006F0300006F03000000000000000000005C
:1000C0006F0300006F0300006F0300006F03000068
:1000D0006F0300006F0300006F03000000000000CA
:1000E0000000000000000000000000000000000010
:1000F0000000000000000000000000000000000000
:1001000000000000000000000000000000000000EF
:1001100000000000000000000000000000000000DF
:1001200000000000000000000000000000000000CF
:1001300000000000000000000000000000000000BF
:1001400000000000000000000000000000000000AF
:10015000000000000000000000000000000000009F
:10016000000000000000000000000000000000008F
:10017000000000000000000000000000000000007F
:10018000000000000000000000000000000000006F
:10019000000000000000000000000000000000005F
:1001A000000000000000000000000000000000004F
:1001B000000000000000000000000000000000003F
:1001C000000000000000000000000000000000002F
:1001D000000000000000000000000000000000001F
:1001E000000000000000000000000000000000000F
:1001F00000000000000000000000000000000000FF
:10020000354936480A1A02D0072291438D463449AF
:1002100034480A1A06D00722914381F30988022242
:1002200082F3148830483149314A00F044F83148AB
:100230003149324A00F03FF831483249324A00F041
:100240003AF832483249334A00F035F832483349F7
:10025000334A00F030F833483349344A00F02BF881
:1002600033483449344A00F026F8344834490022EF
:1002700000F02CF833483449002200F027F83348C6
:100280003349091A082902DB002202604160314A21
:1002900090471F481F49884205D00268043003B4C4
:1002A000904703BCF7E700208646EC46002000217B
:1002B000294A9047FEE7884207D0521A05D00378B2
:1002C00001300B700131013AF9D17047884202D0F8
:1002D00002700130FAE770470000012000E00020C2
:1002E0000000012000000120C0BD01007C1500209D
:1002F000D4150020D0030000D00300009066010058
:10030000C0BD01007C1500207C1500208C68010018
:100310008C6801008C6801008C6801008C68010009
:100320008C6801008C6801008C680100C0BD010070
:1003300018BE0100D4150020D4150020D4150020CB
:10034000DA370020DC370020DC370020DC370020E3
:10035000DC5700209D0300008DDB0000FEE7FEE778
:10036000FEE7FEE7FEE7FEE7FEE7FEE7FEE7FEE765
:1003700000F002B8FFF7FCBF0F484FF007018843B9
:1003800085460E4880470E48016841F470010160BF
:10039000BFF34F8FBFF36F8FFFF732BF09480A4992
:1003A0000A4A884207D0521A05D0037801300B70F0
:1003B0000131013AF9D170470000012045E1000008
:1003C00088ED00E078680100681500207C150020A9
:1003D000022003F025B800002DE9F04780460D46C5
:1003E00003F03EF80328044610D8012D10D0022D4A
:1003F00030D05DB91A4800F062FD1A4B04EB44029C
:1004000013449E78184B1B5DB34219D0BDE8F087AA
:10041000144D00EB4002A918AE5C4A78470052B177
:10042000DFF84C900E484A464FF4804100F02FFD13
:1004300008B989F800803B192B449A780A4B1A5561
:10044000002EE3D0094B1B68002BDFD03046BDE8FF
:10045000F047184700EB4004024804446678EFE791
:10046000F815002038160020511600204C160020E8
:10047000D415002000780221FFF7AEBF08B5094B64
:100480001B7853B1002002F0A1FF012002F09EFF73
:10049000BDE80840032002F099BFBDE8084002F023
:1004A000A1BF00BFD5150020F8B57B4C23780546C9
:1004B0001BB100232370FFF7E1FF172D00F28880A6
:1004C000DFE805F00C17174354657680888D888D1A
:1004D000959A9A9A9A9AC4C9D1D9E4E4FFF7CEFFC3
:1004E0006E4800F0ECFC6E4B002204461A70204669
:1004F000F8BD002002F050FFF8B1002002F066FFC6
:10050000022D0CBF4FF4E1614FF47A61644B1D7012
:100510004FF400404FF47A740025E0FB01454FF49E
:10052000FA6200232046294613F076FA002201469B
:10053000BDE8F840594800F0AABC02F03BFF022D8C
:100540000CBFC8214FF4C871E0E7002002F024FF7F
:1005500040B1002002F03AFF4FF44871504B0322A3
:100560001A70D5E702F026FFC821F7E7002002F055
:1005700013FF38B1002002F029FF4FF47A61484B95
:100580000422EDE702F016FF4FF4C871F7E70020F0
:1005900002F002FF48B1002002F018FF404B052294
:1005A0001A7040F6CD410022C2E702F003FFF5E7E2
:1005B000002002F035FF3A4B06221A70002240F26A
:1005C0006661B5E7002002F0F5FE354B07221A7090
:1005D00000248CE70120207002F022FFEEE70120CA
:1005E000207002F01DFF00224FF40051A0E702F03E
:1005F00008FF2B4B0C22EAE72A482B4E00F05FFC49
:10060000D5F1110504461CD0D8B9012D13D0C8234B
:100610005D434FF400474FF47A7000214FF4FA62C3
:100620000023C7FB050113F0F7F9224601461D48D8
:1006300000F02DFC0446022002F0BCFE01233370C2
:1006400055E7022002F0C2FE0023F8E7FFF716FF8D
:10065000134B1222BBE7FFF711FF002002F0AAFEA6
:100660000F4B1322B3E7FFF709FF012002F0A2FEB0
:100670000B4B1422ABE7FFF701FF002002F09AFEBC
:10068000012002F097FE064B1522A0E702F0B9FE0A
:10069000034B1D709CE700BF481600201816002071
:1006A00050160020D8150020D5150020044B1B68DB
:1006B000DB0703D5034B1878FFF7F6BE704700BF82
:1006C0004416002050160020032801D802F0BABEBC
:1006D00000207047044B1B6813F0010301D0FFF7A3
:1006E000E3BE1846704700BF4416002038B51C4BC7
:1006F00018601C4B10F00204054619601AD01A4B02
:100700001A480E221A700F22DA7010229A711122E2
:100710005A72042140F2333200F04EFA044648B9CE
:1007200000F0A0FA044628B90146114A114800F029
:10073000A3FB0446EB0711D5012002F0A9FE6CB91A
:1007400021460D4A0D4800F097FB044630B9BDE83C
:1007500038400B4A0B48012100F08EBB204638BDC3
:10076000441600204C160020381600208C6801002A
:1007700075040000B0680100AD060000B468010017
:10078000D1030000AC680100032811D8012A0AD166
:1007900001290FD100F10E02D2B20D4B00EB400047
:1007A0001A54002070470129F7D0022904D049B11A
:1007B000072070470022F8E7054B00EB4000184483
:1007C0004270EEE7024B00EB400018448270E8E70D
:1007D00038160020032808B512D802F053FE800016
:1007E00000F1A040D0F8003723F44033C0F80037C0
:1007F000D0F8003743F44033C0F80037002008BD7C
:100800000620FCE708B5012202210020FFF7BCFF0B
:1008100008B1072810D1072202210120FFF7B4FFF9
:1008200008B1072808D100210A220846FFF7ACFFCB
:1008300010B1072808BF002008BD00000388102B56
:1008400010B502D0112B1ED010BD1A4C2168B1B9C1
:1008500001220846FFF798FF08B1072824D1072294
:1008600002210120FFF790FF08B107281CD10422C4
:1008700002210020FFF788FF08B1072814D1236860
:1008800001332360E0E70B4A1368013B1360002B40
:10089000DAD1FFF7B7FF0028D6D0074B1B68002B33
:1008A000D2D0BDE810401847034B1B68002BE6D0A0
:1008B0009847E4E75C1600205816002008B5002091
:1008C000FFF788FF08B1062806D10120FFF782FF55
:1008D00010B1062808BF002008BD00000D4B10B560
:1008E00018600C4629B10120FFF7EEFE40B102234B
:1008F0002370094B1B6853B9BDE81040FFF782BF56
:10090000FFF7E2FE08B10B23F2E72070F1E70020C9
:1009100010BD00BF581600205C1600200CF0A4BECD
:10092000002108460CF054BE10F1360F0AD058B121
:1009300048F2165248F2115310F1380F14BF104606
:100940001846704748F21450704708B508461146DB
:100950000BF036FB002008BD30B5044685B0002002
:100960000BF0EEFA054678B9201D03900BF02EF936
:100970000649039800952B462A460BF07CF905B0F2
:10098000BDE83040FFF7D0BF05B030BD4B090000D7
:1009900008B504300BF01FF90BF0F2FA002008BD87
:1009A00008B504300BF0FEF9BDE80840FFF7BCBF06
:1009B00008B5114604301A460BF01BF9BDE8084093
:1009C000FFF7B2BFC30710B507D4F023054A4008AC
:1009D000145C23401943115410BD0901C9B20F23FF
:1009E000F4E700BF9016002030B5094B1C78094B86
:1009F000196800239C4202DC0022104630BD11F829
:100A00003350854201EBC302F7D00133F2E700BF58
:100A100060160020A016002013B504460191FFF7D0
:100A2000E3FF38B143682BB10199204602B0BDE81D
:100A30001040184702B010BD034B0448196800224B
:100A4000490800F024BA00BF641600206816002090
:100A500010B5C0B2FFF7C8FF044600780BF028FDC0
:100A600063785A1E53425341834208D1044BD3E961
:100A70000023134303D1BDE81040FFF7DDBF10BDD5
:100A80008816002038B5334A43080446D35CC207B1
:100A90004CBF1B0903F00F030D46042B59D8DFE8A8
:100AA00003F003222A363900002952D00121FFF732
:100AB00089FF002000F0F2FA0120A4F12003C4F124
:100AC0002001254A20FA01F100FA03F30B43A0406C
:100AD000D2E9004120430B43C2E90003BDE838409E
:100AE000002000F0DDBA002918BF02212046BDE831
:100AF0003840FFF767BF41B10321FFF763FF20468E
:100B00000121BDE83840FFF787BF0121EEE701BBB7
:100B10000421EBE709B10321E8E7FFF753FF29467A
:100B20002046FFF779FF284600F0B8FA0120A4F12B
:100B30002003C4F12001084A20FA01F100FA03F36E
:100B40000B43A040D2E9004124EA000021EA03035C
:100B5000C2E738BD90160020881600202DE9F0412C
:100B6000124E134F00243378A34208DC114BD3E913
:100B70000023134318D0BDE8F041FFF75DBF3D6887
:100B800005EBC40815F834000BF092FC98F801301E
:100B90005A1E53425341181A4142414115F834003C
:100BA000FFF770FF0134DEE7BDE8F081601600203A
:100BB000A016002088160020092AF7B505460C4625
:100BC00016463CD90BF0B4FBD8B11E4B1E481D6035
:100BD0001E4B1F4F1C701F4B002110221E6013F074
:100BE00059F81D4B00200021C3E90001013CE4B28B
:100BF0000326FF2C0BD1194A1948002100F03CF9BB
:100C000003E00BF057FB0028DFD003B0F0BD9DF8E8
:100C1000063015F834008DF8046005EBC40223F0AB
:100C200007038DF8063001A993788DF805303A4610
:100C30000BF088FB013CE4B20028DAD0E5E707209E
:100C4000E3E700BFA01600209016002060160020E9
:100C5000510A000064160020881600205D0B000079
:100C6000C468010070B5084D084E00242B789C42E2
:100C700001D3002070BD3368012113F834000BF05C
:100C8000D3FB0134F2E700BF60160020A01600205D
:100C90001FB50021039001AA44F20100CDE9011122
:100CA00000F004F805B05DF804FB000010B572B662
:100CB0000AF07EF809F0DAFE0028FBD1104B114C47
:100CC0001149E41AE408240444F001000AF00CF885
:100CD0000E4B1B68DB0700D500BE0D4944F0020037
:100CE0000AF002F8BFF34F8F0A490B4BCA6802F4AF
:100CF000E0621343CB60BFF34F8F00BFFDE700BF3F
:100D00001C6701004C670100C8680100F0ED00E0BD
:100D1000D468010000ED00E00400FA05D0E90223E8
:100D2000D1E90201994208BF90422CBF0120002066
:100D30007047000008B50B4800F0D1FA0A4B0B4988
:100D4000D3E900231218D1E9000143F100038B42DB
:100D500008BF824203D212F1807243F100031046B1
:100D6000194608BD7C150020A81600202017002079
:100D700037B505460C460A4801A901F078FA60B17A
:100D80000570446001A9064801F09BFA18B10548B6
:100D900000F0AAFA002003B030BD0420FBE700BF3A
:100DA0000C1700207C15002038B5184B1B78044622
:100DB00013B90025284638BD0028FAD0037F03F078
:100DC000FF05002BF5D0FFF7B5FFD4E902239942C8
:100DD00008BF904214D3236903B92377D4E90530BF
:100DE000984721690029E4D0237F03F0FF05002BF9
:100DF000DFD0D4E90223521843F10003C4E90223EF
:100E00000348214602F047FAD4E700BFB01600209D
:100E1000F068010013B5114B1149186801900823BF
:100E20001048582201F0EEF9044698B90E4A0F48CE
:100E300001A900F045F9044660B90C48012100F011
:100E400031FA01230A4A0948194600F093F9094B7F
:100E500001221A70204602B010BD00BFEC680100EC
:100E6000B41600200C170020E10E00007C150020B5
:100E7000FFFF7F00B01600203AB103685A614A1E96
:100E8000514251411961002070470720704738B521
:100E9000037F04460D4683B98261FFF74BFF236948
:100EA000401941F10001C4E9020103B12561214665
:100EB0000020BDE83840FFF75BBF002038BD0023AD
:100EC000014603770120FFF753BF401A20F07F400F
:100ED00070470000014800F002BA00BF7C150020F6
:100EE0002DE9F04F85B0804600F0E4F940B15A4A50
:100EF000D2E9003113F1807341F10001C2E9003100
:100F00000021404600F0E5F938B1544E336823B172
:100F10003068FFF749FF002333600121404600F0AD
:100F2000D8F920B1FFF706FF4D4BC3E900014D484A
:100F30004A4F4D4EDFF8389103A901F0D2F900284D
:100F400045D1DFF82491454EDFF828A1484602F04C
:100F5000B8F93368002875D07BB13368D0E9020155
:100F6000D3E90223994208BF90422DD233681B7FF8
:100F70001BB13168484602F08EF9484602F09BF9F1
:100F8000D0E902B307460193FFF7D4FE019BBBEB08
:100F9000000463EB0105012C75F1000345DBB4F59A
:100FA000350F40D3FFF796FF304A02444FF49603C3
:100FB0000021504600F0FEF800283ED1336813B9F6
:100FC000404600F0CFF8376005B0BDE8F08F0378F9
:100FD000012B1DD0022B09D14FF0000A304602F040
:100FE0006AF9002834D080F81CA0F7E73BB94168C3
:100FF0000B7F23B901230B77304602F04CF903A98C
:10100000184801F099F903A9164801F06AF996E722
:1010100041683B68994202D100233B60EFE73046CC
:1010200002F052F9EBE7BA68C0E70021504600F041
:1010300046F93846FFF7B8FE01E00D28F9D0002345
:10104000336083E7002BBFD1404600F08FF8BBE749
:10105000012389F80030D2E7A816002028170020C5
:10106000201700200C170020F0680100FFFFB400DB
:10107000B01600207C15002072B6024A13680133B6
:10108000136070472C170020034A1368013B13605C
:1010900003B962B6704700BF2C170020FFF7ECBF02
:1010A000FFF7F2BF435882B03BB10023435043588F
:1010B0000193019B012002B070471846FBE7000036
:1010C000F8B5204B4479204D43F824201F4A204B8B
:1010D00005EBC4049B1A2279DB081B0432B143F0F0
:1010E00002001C4909F000FE0820F8BD02680C88C7
:1010F000C2F8084590F904608A7804795201002EFC
:10110000D2B219DB14498F1987F80023012276091E
:1011100004F01F0402FA04F441F82640427905EB7A
:10112000C201012445F832000C7143F003000B4961
:1011300009F0DAFD0020D8E7094904F00F040A5548
:10114000ECE700BF38170020301700201C670100B3
:101150005C670100FC68010000E100E01E6901001D
:1011600014ED00E0036801221A6070470368012251
:101170005A60704773B501F15005AD000068ADB21B
:101180004FF480348C400026C0F80843C0F8484330
:10119000465101F5A8714559019522F07F42019D04
:1011A00040F82120C0F844430BB1C0F8044302B01A
:1011B00070BD00002DE9F74F0D4622F07F44026814
:1011C0004FF4803705F150068F408046B60002EBA1
:1011D0008500C2F84873B6B2C2F80873D2F8041595
:1011E00099464FF0000BD0F84035C0F8401542F852
:1011F00006B05B1A9259009223F07F43012B009AAC
:101200004FEA850A0CD1264B4FF4806043F001036E
:101210009847D8F8003043F806B09B590193019BDA
:10122000D8F80010D1F80465C1F84473A31B23F06B
:101230007F43012B1CD11A4B05F5A875013443F0EF
:10124000010341F825404FF480609847D8F80030FA
:10125000D3F804359E4209D1D8F800300020C3F8F5
:101260004473C3F8047303B0BDE8F08F0D20FAE7B0
:101270008A44C9F1FF13CAF84045D1F80405221A7F
:10128000013A22F07F4203F57F439342EED3002AD6
:10129000E2D10134CAF84045D1F804359842DAE782
:1012A0003069010003680222C3F8442309B1C3F87E
:1012B0000423704700684FF48271FFF7F3BE4FF4C8
:1012C000803303FA01F10368C3F84813C3F8081325
:1012D000704750318900006889B2FFF7E3BE0368A8
:1012E000D3F804057047000090F90430002B09DBA7
:1012F0005A09012103F01F0301FA03F340320249A6
:1013000041F82230704700BF00E100E0024B034A81
:101310001B681068184700BF3817002030170020DE
:1013200070B5064D0646002455F8043B0BB1304617
:1013300098470134042CF7D170BD00BF4817002036
:10134000033080B240F2FE33984230B51FD8134BC1
:101350001A783AB91C895D892C440444A4B2B4F5C6
:10136000806F0AD91A7DAAB99A8BDC8B2244024479
:1013700092B2B2F5806F0DD801220A801446142271
:1013800002FB04335A8910445881002030BD48F2D2
:101390000860FBE748F20660F8E700BF7C17002012
:1013A0000B4A0C4B5188142000FB0131CB6833B938
:1013B0000420496810700122074801F071BB0749F9
:1013C0000523137002238B80012209680023F3E7B1
:1013D000601700207C1700206815002044180020AA
:1013E00007B5002305490093054A09680548082305
:1013F00001F0C0FA03B05DF804FB00BF4418002000
:10140000446901006815002007B5002301460093D8
:10141000034A0448082301F0ADFA03B05DF804FB69
:101420003C6901006815002013B500230C460093A9
:101430000146084A0848042301F09CFA38B90749D4
:10144000142303FB04140123237402B010BD48F2DB
:101450000D60FAE738690100681500207C1700204C
:1014600037B50A480A4B42689C8819685388032597
:10147000033305709BB2002000909B0001EB8401B8
:10148000044801F077FA03B030BD00BF60170020B8
:10149000441800206815002010B50146044800F0EB
:1014A000E6FE1C220446002112F0F4FB204610BD8B
:1014B0003018002068B10268084B9A4209D1406890
:1014C000074B984207D00133984214BF03200120F4
:1014D0007047032070470020704700BFDEC0ADDEBC
:1014E000FE011EF14388033300EB830399420BD3C3
:1014F00082884FF6FF739A4208D0038833B1806820
:10150000431C5842584170470220704701207047E1
:101510002DE9F0410D460223154F2B80164600F5AC
:10152000805100F108044FF001088C420ED223686C
:1015300001330BD02046FFF7D5FF48B10EB186F836
:101540000080022809D14FF480632B80BDE8F08130
:10155000A3683A68934200D93B602B8862880333C2
:1015600013442B806388033304EB8304DDE700BF5F
:101570007417002038B5144B14220D4602FB0030BE
:101580002B68446804F58051A3B15C88033403EBF5
:1015900084048C4215D22368013312D02046FFF711
:1015A000A1FF012808D002280BD00028F1D12C601F
:1015B000012038BD0834ECE76388033304EB83046F
:1015C000E7E70020F5E700BF7C170020426873B50D
:1015D00004460D466AB3244BD9688A4229D31B6955
:1015E0009A4226D812F0030323D1204900890989A1
:1015F00088421ED12068916888421AD11C494868E7
:10160000824203D900F5805082420DD389698A4213
:101610000CD901F580518A4208D201222A80B3FAFE
:1016200083F0400902B070BD1A46F7E748F209633B
:10163000F5E700232B801E460196288801A9FFF7B5
:1016400099FF30B92B8801339BB2012B2B80F3D942
:10165000E8E7019B226899689142EED16360034BF1
:101660001B892381DEE700BF68150020601700207A
:101670007C1700202DE9F8431C461D4B1B780646BD
:101680000F46154673B382B37CB3DFF86C804FF01E
:101690001409A388012B02D948F2096020E009FB54
:1016A00003F318F803302BB9A0882146FFF762FF37
:1016B00020B92060A3880133A380EAE723681EB124
:1016C000998832889142EFD11FB119883A889142A6
:1016D000EAD19A68C5E90023064B1B892B810020BB
:1016E000BDE8F88348F20160FAE748F20460F7E7E2
:1016F00058170020601700207C17002008B5074B02
:101700005888191DFFF736FF18B1BDE80840FFF7EC
:10171000A7BEBDE80840FFF743BE00BF601700202A
:101720002DE9F04FA44FDFF8B49289B00646B846D1
:101730003B6823B9A148494600F0D3FD3860D8F88A
:10174000005029784B1E052B07D8DFE813F0220044
:101750007C007C000E010E01660148F20E6414222A
:10176000002103A812F096FA41F61D539C4208BFCF
:101770000024D8F8003004941A78013A052A00F2BF
:10178000F881DFE812F0E401E801080218022402FF
:101790002E022EB18A4B00225A604FF40644DEE737
:1017A0002B79032B1DD8DFE803F015022B36854972
:1017B0000B78022B08461AD00B7D022B4FF0010349
:1017C00017D114225343C2180020C8545068FFF7A1
:1017D0001BFE03E001232B71FFF702FE002800F03F
:1017E000BE80774B00225A6048F20D64B7E70023B1
:1017F000E7E7734A13700023536041F61D54AEE7C8
:1018000071497248002302222B718A8009680122E3
:1018100001F046F9E2E76C4C00262E712068694D14
:10182000FFF7F2FD6A4BD4F800C05A8814235343E3
:10183000EA18EE5451682160A188C2F804C01181F1
:101840000222A280CAE7B5F814A0AA7DDFF874B11D
:10185000AEB1022AEB8806D9142101FB0AB1DA1CC9
:10186000088902440A81142202FB0ABAC3F57F43A5
:10187000BAF80A20FD331344AAF80A308DE714237E
:1018800003FB0AB318895C6804EB8004062A69D854
:10189000DFE802F0274E36441D5A040041F61D547D
:1018A000AA7DEB88022A06D9142101FB0AB1DA1CB1
:1018B000088902440A81142202FB0ABAC3F57F4355
:1018C000BAF80A20FD331344AAF80A3047E7414822
:1018D000414900234360AB690360FFF777FE0028AE
:1018E0005BD00223AB75002300930423EA18214642
:1018F000364801F03FF8002831D048F20D64CFE7B8
:101900002B69002B14BF03230123AB750023009325
:1019100005F10C02042304F10801E9E70123AB758A
:101920000022EB8800922A699B0004F10C01DFE79A
:1019300003290CBF05230623AB7500230093042362
:1019400005F10802E118D3E70623AB75224B19888D
:10195000204B5868FFF768FD04460028A0D109B065
:10196000BDE8F08F48F20E649AE7002E7FF415AFC1
:101970002B79012B34D0022B3FF43FAF002B7FF4A7
:10198000ECAE02232B710DF10A01EB68039303A85F
:10199000CDE90466FFF71AFE10B948F20964DEE6E5
:1019A0000498BDF80A108388EB8003882B81FFF729
:1019B0003BFD044627E000BF7817002030180020C8
:1019C000581700207C1700204418002068150020BC
:1019D000601700203C1700205018002070170020CE
:1019E000814B03AA3146A81DFFF744FE7E4B0446F7
:1019F00068B999880498FFF717FD044648F209630F
:101A00009C423FF4FAAE002C7FF4A9AEA7E708226F
:101A10003146184612F03EF9F0E7002E7FF4BDAED5
:101A2000724B1A7BB2B11E731A78013A062A3FF63E
:101A300094AE01A151F822F0E31A0000091B000046
:101A4000271B00002D1B00005B170000331B00004C
:101A5000451B00001A78072AE6D801A151F822F0A8
:101A6000811A0000291A0000291A0000A71A000094
:101A7000BB1A0000DF1A0000DF1A0000A31A0000E2
:101A80001A895B4901321A8100225A801A730A7836
:101A9000B2FA82F252099A720A7DB2FA82F25209BD
:101AA000DA72012207E0534958688A884088033275
:101AB00002448A8002221A70B6E74D4C5A884D497A
:101AC000142505FB0242086854685060888810811C
:101AD00002200C608880002111740622EBE70722A7
:101AE000E9E79A7A32B9DA7A8AB900221A705A800A
:101AF0005A6082E63E4900229A72CA68002AF2D1F0
:101B0000097C0029EFD05A80FFF7F8FD51E7002249
:101B1000DA72374A116A0029E7D192F82420002AA4
:101B2000E3D00122EFE7FFF79BFC42E7FFF738FC29
:101B30003FE72F4A5B88142101FB03235868FFF716
:101B400063FC36E700225A60FFF74AFC31E70023C6
:101B50008DF80C300DE001228DF80C201A89ADF8BB
:101B600018209A88DB680593ADF81A2000238DF8B9
:101B70001C3003A8FFF7D4FB002649461E48C8F8CE
:101B8000006000F0D9FB1D48012100F08FFC002807
:101B90007FF4CEADE3E602228DF80C201A89ADF871
:101BA00018209A88ADF81A20DA689B7D05929A1F52
:101BB00053425341DBE703228DF80C20DA88ADF85D
:101BC00018201A89DB68ADF81A200593D1E70422A2
:101BD0008DF80C20DB88ADF818300023ADF81A30F2
:101BE000F3E70523B4E700BF541800206017002076
:101BF0007C170020441800203018002040180020D6
:101C00004068FFF78DBD000008B50548012100F0D0
:101C100035FC18B9BDE80840FFF782BD08BD00BF1C
:101C2000401800202DE9F3419846374B1B780646B3
:101C30000D46002B5CD000295DD009884FF6FF735C
:101C400099425BD06B88002B58D06B689B0758D1AA
:101C50004AB92F890DF102013846FFF771FB30B107
:101C600002B0BDE8F08113885788ADF8023001A8B2
:101C7000FFF712FC044660B9BDF80230234A142174
:101C800001FB032358890338C01B588148F20760C1
:101C9000E6E780F8008000238375BDF80230838278
:101CA0006B68036101211A4800F0F4FB2B88238143
:101CB000B8F1030F6B88A38004BF0423A3754FF012
:101CC000000508BF3368E06008BFA3611148E780E2
:101CD000658101A900F0F5FA36B1E36833600E4B77
:101CE00075601B89B5723381FFF78EFF0020B7E75F
:101CF00048F20160B4E748F20460B1E748F20360DB
:101D0000AEE748F20260ABE7581700207C170020CE
:101D100074170020301800206017002008B5034613
:101D200007480268042A08D00168064A42F82130B0
:101D3000012100F0AFFB002008BD48F20B60FBE77B
:101D40004C180020481700202DE9F04F89B01422CC
:101D5000002103A811F09EFF774A137803F0FF01DA
:101D6000009190463BB103A8FFF7DAFA0027384606
:101D700009B0BDE8F08F101D00F0A4FB0028F5D1DC
:101D80004FF010234FF080525B69116952696B4C20
:101D9000581C08BF02FB01F323616949A3F54053B6
:101DA00000222046E36000F0B3FD019407460028BE
:101DB000DDD164496448DFF8A4B11C238C2200F013
:101DC00021FABA463D464FF003093C46019BDE68C6
:101DD00056443046FFF76EFB012862D0032817D027
:101DE00000283DD159494FF0140C0CFB04FC01EBC9
:101DF0000C0201F80C0056600CF110020CF1080CFA
:101E00000A4430466144FFF783FB45F0020545E094
:101E10003268531C02D04E4B9A4234D1321D06F523
:101E20008051106801302ED104329142F9D1DBF893
:101E300000203AB902220123CBF80060ABF804205D
:101E400000930BE014226243404B022099189854EF
:101E5000404A4E60548001340881A4B245F0010527
:101E60000AF5805ABAF5405FB0D1B9F1010F98BFB9
:101E70000025EDB2022D03D0062D31D0002D39D131
:101E800048F20A6773E7314914226243881809F15E
:101E9000FF394660032088541FFA89F90134A4B23F
:101EA000DEE7009B6BB1294B142262439918022094
:101EB0009854DBF800204A60264A08815480013497
:101EC000A4B200222449CBF800603046FFF720FB83
:101ED000BBF80420022A0CBF042208221543BFE7E6
:101EE000012388F8003003A80023C8F80430FFF766
:101EF00017FA3CE702A8FFF7CFFAC8B10123013D6A
:101F000003700A2D09D8DFE805F00608060807085F
:101F100007080F110F000023037102A90A4800F0FF
:101F2000D0F9FFF771FE22E70323F5E70223F3E779
:101F300048F207671BE700BF58170020681500200C
:101F4000406B0100A4170020301800207C170020EF
:101F5000DEC0ADDE601700204818002044180020C5
:101F600073B50D460446C8B1C1B10DF10601FFF7C6
:101F70002DFBB0B10C4BBDF806006668142202FBC5
:101F8000003001210C3000F085FA63682E600C33BC
:101F90006B600123A372002002B070BD48F20460A0
:101FA000FAE748F20960F7E77C17002013B504460A
:101FB000A8B10DF10601FFF709FB98B10C4ABDF875
:101FC0000630142101FB0323DA6872B1A27A62B1F0
:101FD000DA680020013ADA60A07202B010BD48F25F
:101FE0000460FAE748F20960F7E748F20560F4E7B1
:101FF0007C17002002230022FFF714BE18B1032330
:102000000022FFF70FBE48F204607047114B1B78A7
:1020100013B50446ABB14FF6FF73984214D001A834
:10202000FFF73AFA98B10523037001230371C480C6
:1020300001A9094800F045F9FFF7E6FD002002B0CC
:1020400010BD48F20160FAE748F20360F7E748F292
:102050000760F4E758170020301800200F4B1B785A
:1020600007B5A3B101A8FFF717FA98B106230370CB
:1020700001A90B4800F025F90A4B1A780AB1012290
:102080001A73FFF7C1FD002003B05DF804FB48F2AE
:102090000160F9E748F20760F6E700BF5817002033
:1020A000301800206017002007B5ADF80600ADF825
:1020B00004100DF1060001A9FFF7DCFA03B05DF88A
:1020C00004FB07B51346ADF806000A4600200DF1E3
:1020D0000601FFF7CFFA03B05DF804FB07B513461E
:1020E000ADF806000A460DF106000021FFF7C2FA1E
:1020F00003B05DF804FB20B119B103680B60002048
:10210000704748F2046070472DE9F84F3B4B1B784D
:102110000446002B6CD000286DD0DFF8E4A012221A
:10212000002111F0B7FD032323804FF0000BD046B0
:1021300014274FF00109DAF80410BAF80A50BAF877
:1021400008600846FFF7B6F9032808BF23886288AD
:1021500004BF03F1FF33238007FB0B832E44DB68AE
:102160001344638023891D4463892581B6B23344B7
:102170006381C6F58066A389B6B2B34201F1080552
:1021800038BFA68101F58051A94229D92B680133B6
:1021900026D02846FFF7A6F901280AD0022815D034
:1021A0000028F1D1A3880133A3800AE04FF0010B8E
:1021B000C1E7E3880133E380E3896A88033313448A
:1021C000E3816B88033305EB8305DDE7E38884F85F
:1021D00010900133E380E389491B03EBA101E18106
:1021E0000AF1140ABBF1000FE0D00020BDE8F88F1F
:1021F00048F20160FAE748F20460F7E75817002058
:102200007C17002010B561B1B2FBF3F403FB14247A
:10221000A4B244B9C0E9001484608281C38120461D
:1022200010BD0E20FCE70920FAE782B050E8022F2B
:10223000C188B2EB324F4FF0000317BF92B241EAB0
:10224000014142EA014104E04268B2EB324F08BF6B
:10225000012340E80212002AE8D18DF807309DF8EA
:102260000730002B0CBF1120002002B0704737B59B
:1022700050E8013F9DB2C48925448489A54228BF06
:102280002D1B0489A54202BFBFF32F8F002207E058
:10229000C5EA030540E80154002CE9D14FF00102E2
:1022A0008DF803200193019B9DF803200B6002F041
:1022B000FF0322B10B880068184403B030BD1846F4
:1022C000FBE70A884B889A4209D150E8012FC2EAFD
:1022D000024240E80123002BF7D101207047002083
:1022E000704737B550E8023F1FFAA3F5C488A542EE
:1022F00002BFBFF32F8F00220DE0C48925448489DB
:10230000A54228BF2D1BC3EA054540E80254002C16
:10231000E8D14FF001028DF803200193019B9DF855
:1023200003200B6002F0FF0322B14B8800681844C1
:1023300003B030BD1846FBE70A884B889A4209D1A2
:1023400050E8022FC2EA224240E80223002BF7D1D4
:10235000012070470020704701F01F024B09012146
:10236000914000EB830000F065B84B0910B501F017
:102370001F040121A14000EB830000F04FF8E04072
:1023800000F0010010BD01F01F0301229A404B092B
:1023900000EB8300D14300F065B84B0901F01F0149
:1023A00050F82300C84000F0010070472DE9F047C5
:1023B0004F1E7F0980460E460137002558F82540FC
:1023C00008EB8509E44394FAA4F4B4FA84F44FEAE0
:1023D000451A202C06D10135AF42EFD834462046AD
:1023E000BDE8F0875444A642F5D921464046FFF7A0
:1023F000BCFF0028F3D0D9F80040E44394FAA4F4D9
:10240000B4FA84F4E5E710B5034653E8000F0A4632
:1024100043E8002494F0000FF7D110BD10B5034637
:1024200053E8000F40EA010243E8002494F0000F53
:10243000F6D110BD10B5034653E8002F42EA010063
:1024400043E8000494F0000FF6D110BD10B5034628
:1024500053E8000F00EA010243E8002494F0000F63
:10246000F6D110BD10B5034653E8002F02EA010073
:1024700043E8000494F0000FF6D110BD10B50346F8
:1024800053E8000F00EB010243E8002494F0000F32
:10249000F6D110BD10B5034653E8002F02EB010042
:1024A00043E8000494F0000FF6D110BD10B50346C8
:1024B00053E8002FA2EB010043E8000494F0000F62
:1024C000F6D110BD0121FFF7A9BF0121FFF7B2BF6F
:1024D0000021FFF7BBBF10B590B1D0E9012301681F
:1024E0009B1ADBB20A60013BDBB2FF2B026802D110
:1024F0000020107110BD11684C1C14600B70F2E7C5
:102500000E20F7E738B504460020FEF7C7FD226825
:1025100063681168994213D9481E106011F8015C74
:10252000E368218A01FB0535A36811791B1ADBB228
:10253000994200D213710020FEF7B2FD284638BD43
:102540000025F8E738B5054600200C46FEF7A6FD45
:102550002A681368591C1160E968641A298AB4FB57
:10256000F1F41C70BDE838400020FEF799BD826888
:1025700010B504462AB143690168006998470023F1
:10258000A36010BD0EB403B5039921B104AB01AA39
:10259000019300F06FF802B05DF804EB03B07047F0
:1025A000826830B40468551C8560A154D0E90132BA
:1025B0009A4202D330BCFFF7DABF30BC704700004C
:1025C0002DE9F84F9846DDE90A43154682460F4645
:1025D0000A464FF00109AA420FD2C14538BFC14691
:1025E00013F0010B01D16CB900240126B8F1010FE1
:1025F0001BD908F1FF386E43F8E709F10109B2FB76
:10260000F5F2E8E79B070ED5B8F1000F0CBF3026B6
:102610002026A145E9D2013C31465046FFF7C0FFD4
:10262000002CF6D1E0E72026F3E7B7FBF6F39D4256
:10263000E1D9DFF83C80B7FBF6F3504618F80310F9
:1026400006FB1377FFF7ACFF3346AB42B6FBF5F65C
:10265000F1D2BBF1000F02D00CB1A14501D3BDE80E
:10266000F88F20215046013CFFF79AFFF4E700BFA6
:10267000556901002DE9F74F0546174688460029A0
:1026800000F0428118F8011B49B92B7B002B00F0A8
:102690003B81284603B0BDE8F04FFFF768BF25290E
:1026A00040F0B780002698F800302D2B424608F104
:1026B000010823D0302B24D02B2B25D000242A2B0B
:1026C00002F1010123D13B681A1D1B683A601C44CA
:1026D0000A4613782E2B26D101324FF0000A1046FD
:1026E00010F8011BA1F1300CBCF1090F1DD80A2311
:1026F00003FB0A13A3F1300A0246F0E746F0010695
:10270000D1E746F00206CEE746F00406CBE711F823
:10271000013CA3F130000928DBD80A2202FB043473
:10272000303C0A46CBE74FF0000A12F8011B01F0DB
:10273000FB0068289046F8D0782909D86F290CD872
:10274000632962D022D8252963D0582900F08880D7
:1027500098F80030002B95D197E770390829F7D801
:1027600001A353F821F000BFE32800005127000027
:102770005127000071280000512700004F28000059
:10278000512700005127000061280000642901D072
:102790006929DDD13A68D2F80090111D89EAE97201
:1027A0003960A2EBE9724FF0010B092A35DCD34501
:1027B00038BFD3462CB1B9F1000F01DB720700D549
:1027C000013CB30702D5BAF1000F03D0F00701D4E2
:1027D0004CBB0024B9F1000F2DDAC9F100092D21FD
:1027E0002846FFF7DDFE06F00302022A04D1BAF103
:1027F000000F01D11CBB0024CDE9004653460A223C
:1028000049462846FFF7DCFEA2E73B681A1D197807
:102810003A602846FFF7C4FE9AE70A230BF1010B42
:10282000B2FBF3F2C1E7A345D4D220212846013CF4
:10283000FFF7B6FECCE77107D5D52B21D0E7A3452E
:10284000DAD230212846013CFFF7AAFED2E73968E8
:10285000CDE900460A1D3A6053460A220968D0E7CE
:1028600039680A1D3A60CDE9004653461022F5E763
:102870003B681A1D3A6016F00106D3F8009028D183
:10288000B9F1000F03D0484611F059FA0646B44298
:1028900000D904BB09F1FF3919F8011F00293FF4E1
:1028A00057AF2846FFF77CFEF6E728460136FFF7CC
:1028B00077FE19F806100029F7D1A642BFF448AFF9
:1028C000002C3FF445AF20212846013CFFF768FE6D
:1028D000F3E70026EDE720212846013CFFF760FEE4
:1028E000D5E73B681A1D3A60302128461C68FFF77F
:1028F00057FE78212846FFF753FE00220823CDE932
:102900000032214610227CE703B0BDE8F08F00BF03
:1029100013B50B46114680B9104B1148114AC01A25
:102920000E23C0080093104B0004104940F0010032
:1029300008F0F1F90E2002B010BD4BB9074B084862
:102940000B4AC01AC0080E2300930004064BECE7A4
:1029500003601B6802B0BDE8104018471C67010007
:102960008C67010065690100FB6A01006A6901006A
:10297000996901002DE9F34188B93D4B3D483E4A34
:10298000C01AC0080E243D4B009400043C4940F09E
:10299000010008F0C0F9204602B0BDE8F0814AB954
:1029A000334B3448374AC01AC0080E24334B0094C6
:1029B0000004EBE7D0F800E0BEF1000F09D12C4B8A
:1029C0002C48314AC01AC00808242C4B009400043B
:1029D000DCE74BB9264B27482C4AC01AC00809240B
:1029E000264B00940004D1E74568D5F80480B3FB7A
:1029F000F8F508FB15354DB11D4B1E48244AC01A89
:102A0000C00809241D4B00940004BFE78D0709D0BE
:102A1000174B18481F4AC01AC0081024174B0094BF
:102A20000004B3E712F0030F09D0114B11481A4A02
:102A3000C01AC0081024114B00940004A6E7C56812
:102A4000A9420BD34D1EEC180569AC4206D8DEF83E
:102A50000C40A44602B0BDE8F0416047044B054875
:102A60000E4AC01AC0081024044B009400048DE7DD
:102A70001C6701008C670100656901000D6B010096
:102A80006A690100E769010093690100A669010014
:102A9000ED690100176A01002F6A0100526A010006
:102AA000F7B580B92A4B2B482B4AC01AC0080E2410
:102AB0002A4B009400042A4940F0010008F02BF949
:102AC000204603B0F0BDD0F800C0BCF1000F09D122
:102AD0001F4B2048234AC01AC00808241F4B0094EB
:102AE0000004E8E74AB91A4B1A481F4AC01AC0083E
:102AF00009241A4B00940004DDE74768D7F800E08A
:102B00000EF1FF370F4209D0114B1248174AC01A75
:102B1000C0081024114B00940004CCE7C768B942E8
:102B20000CD304694D1E0EFB0255A54206D8DCF8F5
:102B30001040A44603B0BDE8F0406047044B054890
:102B40000B4AC01AC0081024044B00940004B2E7DA
:102B50001C6701008C67010065690100206B0100A2
:102B60006A69010093690100A6690100796A0100A0
:102B70009F6A010070B503689E6886B004460D46E2
:102B80006EB114220021684611F084F8A368059301
:102B9000237901952BB1012B0DD06846B04706B0C3
:102BA00070BD01238DF8003023690293E36803931D
:102BB00063690493F1E702238DF80030E3681B0397
:102BC0000293F5E70846704700207047024B187AD9
:102BD000003818BF01207047F8180020034B187AFE
:102BE0000122B0FA80F05A7440097047F8180020AA
:102BF00008B510461A4611F024F8002008BD000060
:102C000008B514220021044811F044F80348FFF7E6
:102C10000CFB002008BD00BFF8180020E8180020B9
:102C200010B5094C094B43602046FFF74BFC40B9F7
:102C300010F012FD064920741C2306488C22FFF771
:102C4000E1FA002010BD00BFF8180020346B01002D
:102C50005C180020E818002070B5244E244D337A0B
:102C600034463BB923492448FFF73BFB286008B9A9
:102C7000706070BD022323722B681A7972B1012A29
:102C800024D028680321FFF775FF002323726360B7
:102C900018491948BDE87040FFF74EBBD3E905203D
:102CA000121AB2F5805FD3E9031328BF4FF48052A4
:102CB0009208012A014438BF0122184407F09EF807
:102CC00050B11128DDD101232372D2E7D3E90303E8
:102CD000184407F07DF8F3E7237C002BC9D10146A7
:102CE000BDE87040022000F009B800BFF8180020CD
:102CF000101900200C190020E818002038B5831E98
:102D0000012B45D8234C237A002B41D0022B09D12B
:102D1000032830D0204B00221B68E2601A793AB1B8
:102D2000012A22D0637C7BBBBDE83840FFF794BF0B
:102D3000D3E905128D1AB5F5805F94BF521902F5DB
:102D400080529A619142EDD102284FF0000308BFF2
:102D500019462372104B18BF0D211868FFF70AFFA0
:102D60000E490F48FFF7E8FADCE71A6901321A61E9
:102D70005B699A42E7E7E3680133082B01D8E36017
:102D8000D0E70023E360DFE7BDE8384010F054BC33
:102D900038BD00BFF8180020101900200C190020C1
:102DA000E818002000F0FD03012B08D1044B00229D
:102DB0005A74421E504250411874FFF74DBF70477D
:102DC000F818002010B5064C201DFFF77BFB28B932
:102DD000637C1BB9BDE81040FFF73EBF10BD00BFCC
:102DE000F81800202DE9F34180460D460F4801A94F
:102DF00016461F46FFF73BFA0446A8B11C220021E5
:102E000010F048FF2D0B0123237101A90748C4F8D6
:102E10000080A760E5606661FFF753FAFFF7D2FF15
:102E2000002002B0BDE8F0810420FAE7E818002095
:102E30002DE9F74381468846104801A917461E46EA
:102E4000FFF715FA0446B0B11C22002110F022FF52
:102E500000250A9BA36001A9C4E9037807482571EE
:102E6000C4F800906661FFF72CFAFFF7ABFF284625
:102E700003B0BDE8F0830420FAE700BFE8180020A3
:102E80002DE9F84FB0F806A04579D2F800B09DF8CA
:102E900028900AFB05F5043D88460BEB0301A94287
:102EA00003F1040488BFA5EB030BB4FBFAF6074655
:102EB0000AFB1644C2F800B04EB9AAEB04055D4502
:102EC00028BF5D46BBF1000F04D1BDE8F88F3F6815
:102ED000013EF1E7043408EB06003C442A46B9F110
:102EE000000F0DD02146ABEB050B10F0AAFEDA4522
:102EF0002E443F6855464FF0000428BF5D46E1E789
:102F000001462046EFE7FFF7E6BAF8B546790146F5
:102F1000721E0546002393422D6803D30024A64267
:102F200002D8F8BD0133F6E70F682846FFF70AFB21
:102F300001343946F3E72DE9F843068ACD1C0746EC
:102F4000FFF7E0FA043E35440446B5FBF6F5F0B170
:102F50004FF48073EDB28380C680013D07608146E7
:102F60004FF00008A84512D23846FFF7CBFA0646C4
:102F700048B163790133637108F10108C9F80000B1
:102F800007608146EEE72046FFF7BFFF3446204644
:102F9000BDE8F88301210430FFF77CBA10B50121A8
:102FA00004460430FFF782FA10F0FF0F04D12046E8
:102FB000BDE81040FFF7A9BF10BD1FB50392002266
:102FC000009203AAFFF75CFF05B05DF804FB1FB594
:102FD00003920122009203AAFFF752FF05B05DF8A9
:102FE00004FB0000064B10B500241C70054B1C6050
:102FF000BFF35F8F0449054800F037F9204610BD44
:103000001C190020201900206C6B010014190020ED
:1030100008B50020FEF742F8F1EE103A23F09F03C6
:10302000E1EE103ABFF35F8F054B4022C3F88421D5
:103030000020FEF735F820BF40BF20BF08BD00BF0D
:1030400000E100E0026813685268934291BFD01A11
:1030500080680130801888BFC01A704703682DE966
:10306000F0411F681E6815465A68964286BF8368FD
:103070000133961B8846C268416888BF9E1BB542D3
:10308000044607FB02110CD86A43404610F0D9FDF4
:10309000A3683D449D4288BF002523681D60BDE8AC
:1030A000F08106FB02F73A46404610F0CAFDE2689E
:1030B0006168AD1B6A4308EB070010F0C2FDECE746
:1030C000036881681A685B688B4234BF0133002350
:1030D000D31A584258417047F8B5044600200D46AF
:1030E000FDF7DCFF2046FFF7EBFF10B1237C002B40
:1030F0003CD12268A66853685168B14234BF01319F
:103100000021516030B11168A068814234BF0131A3
:1031100000211160E2686068511E072920D8DFE8AD
:1031200001F004101F141F1F1F182A78C2542046D4
:10313000FFF788FF23689A68824200D298600024D3
:1031400015E02A8820F81320F1E72A6840F82320A8
:10315000EDE7D5E9006700EBC300C0E90067E6E7EB
:10316000294602FB030010F06CFDE0E70424002078
:10317000FDF796FF2046F8BD37B505460191144688
:1031800082B10020FDF78AFF2846FFF75BFFA042CF
:1031900001990AD322462846FFF760FF0024002049
:1031A000FDF77EFF204603B030BD0524F7E710B5DC
:1031B00004460020FDF772FF20680C22002110F069
:1031C00069FDBDE810400020FDF76ABF036818687C
:1031D0005B68C31A58425841704770B505460020D5
:1031E0000C461646FDF75AFF2846FFF7EFFF00286A
:1031F00030D129680B682EB90A68A868824238BFA6
:10320000561C0E60EA686968501E07281CD8DFE863
:1032100000F0040C1B101B1B1B14CB5C2370002440
:103220000020FDF73DFF204670BD31F813302380AC
:10323000F5E751F823302360F1E701EBC301D1E951
:103240000023C4E90023EAE703FB0211204610F043
:10325000F8FCE4E70524E3E7836800225A60C3E949
:1032600004229A60DA601A6070470B684A6843600B
:10327000934208BF0023016008BF43607047436862
:1032800043B10268916852680B449342436004BFA3
:1032900000234360704770B5446806460D462068B9
:1032A00018B1B3682946984718B923682B60256080
:1032B00070BD2468F3E74368186808B102681A60B3
:1032C00070474368186870474368186800B97047CA
:1032D000884203D102681A600120704703460068E3
:1032E000F4E7000010B50D49A1F59472914201D8A0
:1032F00000200FE08C1AE30F03EBE4035B1002EBFA
:10330000C30452F83330834205D802D204F10802D4
:10331000ECE7606810BD2146E8E700BF7870010067
:1033200008B5FFF7DFFF024B002808BF184608BDAD
:103330003B6F01000B7B23B14B68036000230371DB
:1033400070470B6803600123F9E703684A688968DE
:1033500010B5D41A8C428BBF5B1800230360026047
:1033600098BF037110BD03680A68896810B59C1A7C
:103370008C428BBF5B1A01230360026098BF03710C
:1033800010BD037910B504461BB1FFF7DEFF2068BE
:1033900010BDFFF7E8FFFAE7054A4FF0A043105CC5
:1033A000D3F8043523FA00F0C04300F00100704761
:1033B0007C700100044B1A5C012393404FF0A04243
:1033C000C2F80C35704700BF7C700100044B1A5CDA
:1033D000012393404FF0A042C2F80835704700BF68
:1033E0007C70010008B50020FFF7F0FF0120FFF717
:1033F000EDFF0220FFF7EAFFBDE808400320FFF7DA
:10340000E5BF08B50020FFF7D5FF0120FFF7D2FF89
:103410000220FFF7CFFFBDE808400320FFF7CABF37
:10342000074A4FF0A041105CD1F8043501228240D8
:1034300022EA03001340C1F80805C1F80C357047B3
:103440007C700100054A4FF0A043105CD3F81035A2
:1034500023FA00F0C04300F00100704778700100CB
:103460000D2809D00E2809D00F2809D010280CBF2C
:1034700003204FF0FF307047002070470120704755
:1034800002207047014B185C704700BF7870010044
:10349000C20708B501460CD54FF0A0430322C3F87C
:1034A0004427C3F84827C3F84C27C3F85027FFF731
:1034B00099FF8B070AD54FF0A0430C22C3F834279D
:1034C000C3F83827C3F83C27C3F8402708BD0000DD
:1034D00008B5202200210A4810F0DCFB0822002158
:1034E000084810F0D7FB30220021074810F0D2FB2B
:1034F000BDE8084005484FF49072002110F0CABBA7
:10350000741A0020941A0020241900205419002055
:10351000F0B50A4C00222546A37843B9242454432D
:103520002E1901272853B77018460A60F0BD0132E2
:10353000082A04F12404EFD10420F7E754190020ED
:10354000084A30B50023242404FB03F18D5A854238
:1035500003D10A440020907030BD0133082BF3D111
:103560000520F9E75419002010B5094A00231488F2
:10357000844205D19478012C02D10B60002010BD4B
:103580000133082B02F12402F1D10520F7E700BF37
:103590005419002030B560B1094A0023144652F88E
:1035A000041B1D46013309B1814203D144F82500B3
:1035B000184630BD082BF2D14FF0FF30F9E700BFBD
:1035C000741A002030B1044B421E002153F822002F
:1035D00043F82210704700BF741A002010B550B194
:1035E000054A0823002152F8044B844208BF42F8E0
:1035F000041C013BF7D110BD741A002010B5054C16
:10360000226832B118B100211046FFF7DBFF00231A
:10361000236010BD9C1A0020F0B50A4C00222546FC
:10362000A37843B90C2454432E1901272853B770AB
:1036300018460A60F0BD0132082A04F10C04EFD1EB
:103640000420F7E7A01A0020084A30B500230C2414
:1036500004FB03F18D5A854203D10A440020907087
:1036600030BD0133082BF3D10520F9E7A01A002063
:1036700010B5094A00231488844205D19478012C9E
:1036800002D10B60002010BD0133082B02F10C02A7
:10369000F1D10520F7E700BFA01A00201FB5074AA7
:1036A00003AB0093D2E9002301F0FEF808B1FDF767
:1036B000EFFA039805B05DF804FB00BF001B002083
:1036C00037B504460D460DF10601204606F0FEFE14
:1036D0000028F8D123681870BDF80630013B2B6034
:1036E00003B030BD07B501AA01F06DF808B1FDF7D0
:1036F000CFFA019803B05DF804FB000007B501AAFA
:1037000001F096F808B1FDF7C3FA019B1BB90198C7
:1037100003B05DF804FB054B9A78002AF7D01888AF
:10372000FFF792FF0028F2D0F2E700BF001B002055
:1037300007B501AA01F098F908B1FDF7A9FA0198B7
:1037400003B05DF804FB0000F0B585B003AF0C4694
:103750000646394602A81546FFF7B2FF0B4BC3E9F0
:103760000045029B009701332A462146304601F06E
:1037700063F808B1FDF78CFA0399054A0298013104
:10378000039189B206F014FF05B0F0BD001B0020C4
:103790009D36000007B5FFF79BFE01A96846FFF7BD
:1037A0008FFF009801A9013000F0F6FF08B1FDF786
:1037B0006FFA0199044A00980131019189B206F02B
:1037C000F7FE03B05DF804FBE536000030B585B0C8
:1037D0000C46054602A901A8FFF772FF2CB303A906
:1037E0002846FFF719FFF0B9039B1149A2880C2066
:1037F00000FB03131A8122685A600E4B01221D80C0
:103800009A70019A02AB01322146284600F0E0FF8F
:1038100008B1FDF73DFA0299074A0198013102917A
:1038200089B206F0C5FE05B030BD024B9C70E8E7DA
:10383000A01A0020001B0020FD36000037B504460A
:103840000D46684601A9FFF73BFF009A01AB013224
:103850002946204601F06AF808B1FDF719FA0199E6
:10386000044A00980131019189B206F0A1FE03B02B
:1038700030BD00BF3137000007B501AA01F0F5FAED
:1038800008B1FDF705FA019803B05DF804FB0000EC
:103890001FB5074A03AB0093D2E9002301F01EFCD9
:1038A00008B1FDF7F5F9039805B05DF804FB00BF1A
:1038B000081B002007B5064A01AB126801F022FB85
:1038C00008B1FDF7E5F9019803B05DF804FB00BF0E
:1038D000081B002007B501AA01F074FC08B1FDF730
:1038E000D7F9019803B05DF804FB07B501AA01F010
:1038F00058FB08B1FDF7CCF9019803B05DF804FB63
:1039000007B501AA01F07AFD08B1FDF7C1F90198E8
:1039100003B05DF804FB07B501AA01F0ABFB08B1E9
:10392000FDF7B6F9019803B05DF804FB07B501AAED
:1039300001F07AFC08B1FDF7ABF9019803B05DF82E
:1039400004FB07B501AA01F0A9FD08B1FDF7A0F934
:10395000019803B05DF804FB13B50A4C00230193F2
:10396000226801AB01F0E6FD08B1FDF791F9019B7A
:1039700013B9019802B010BDA088FFF7E1FD00283F
:10398000F7D0F7E7081B002007B5074A002301938B
:10399000126801AB01F0E0FC08B1FDF779F901987C
:1039A00003B05DF804FB00BF081B002007B500232F
:1039B00001AA019301F080FA08B1FDF769F90198B5
:1039C00003B05DF804FB07B5002301AA019301F0E1
:1039D0001DFB08B1FDF75CF9019803B05DF804FB2D
:1039E00007B5002301AA019301F052FC08B1FDF7CD
:1039F0004FF9019803B05DF804FB07B5002301AA55
:103A0000019301F083FC08B1FDF742F9019803B07E
:103A10005DF804FB07B5074A00230193126801AB68
:103A200001F0D6FD08B1FDF733F9019803B05DF858
:103A300004FB00BF101B002007B5074A00230193B9
:103A4000126801AB01F02CFE08B1FDF721F90198D5
:103A500003B05DF804FB00BF101B002007B5002376
:103A600001AA019301F078FE08B1FDF711F9019860
:103A700003B05DF804FB000073B50E4D01AB2A687E
:103A80000026019601F0AAFE019B04463BB168683E
:103A90003146FFF7A3FDA8683146FFF79FFD2CB123
:103AA0002046FDF7F5F82046FDF7F2F8019802B040
:103AB00070BD00BF101B002038B505460C462146DE
:103AC000284606F003FD0028F9D12B6818702388DA
:103AD000013B238038BD000037B5002304460D4666
:103AE000684601A90193FFF7E7FF009A01AB013295
:103AF0002946204601F08BF908B1FDF7C9F8019974
:103B0000044A00980131019189B206F051FD03B0D9
:103B100030BD00BF7938000037B5002304460D469C
:103B2000684601A90193FFF7C7FF0B4B009AC3E951
:103B30000045013201AB2946204601F09FFA08B149
:103B4000FDF7A6F80199054A00980131019189B263
:103B500006F02EFD03B030BD081B00209138000098
:103B600013B50023044601A968460193FFF7A4FF9B
:103B700000990A4B01AA013120461C6001F0A0F90E
:103B800008B1FDF785F80199054A009801310191C6
:103B900089B206F00DFD02B010BD00BF081B002069
:103BA000B538000070B586B005AE002304460D465A
:103BB00004A8314603920593FFF77EFF049B039A06
:103BC000009601332946204601F0C2FA08B1FDF7FC
:103BD0005FF80599044A04980131059189B206F00D
:103BE000E7FC06B070BD00BFD538000013B5002358
:103BF000044601A968460193FFF75EFF009901AAF8
:103C00000131204601F0AAF908B1FDF741F8019908
:103C1000044A00980131019189B206F0C9FC02B052
:103C200010BD00BFEB38000013B50023044601A906
:103C300068460193FFF740FF009901AA0131204631
:103C400001F0B6FB08B1FDF723F80199044A00988A
:103C50000131019189B206F0ABFC02B010BD00BF8A
:103C60000139000037B5002304460D46684601A916
:103C70000193FFF721FF009A01AB0132294620464C
:103C800001F0C8F908B1FDF703F80199044A00985A
:103C90000131019189B206F08BFC03B030BD00BF49
:103CA0001739000037B5002304460D46684601A9C0
:103CB0000193FFF701FF009A01AB0132294620462C
:103CC00001F084FA08B1FCF7E3FF0199044A009877
:103CD0000131019189B206F06BFC03B030BD00BF29
:103CE0002D39000070B586B00D4605AE00210446A2
:103CF000059104A83146CDE90232FFF7DDFE0499B3
:103D0000019601310091DDE902322946204601F099
:103D100079FB08B1FCF7BCFF0599044A049801310E
:103D2000059189B206F044FC06B070BD433900002D
:103D30002DE9F04186B00DF1100805461C460E46EF
:103D40000023414603A8CDE904331746FFF7B4FE2C
:103D5000154B1C609D8074B105A92846FFF7D8FB60
:103D6000F8B9059B11484FF0240C202221460CFB8A
:103D700003000FF066FF039BCDF80480013300932E
:103D80003A4623463146284601F08CFB08B1FCF741
:103D90007FFF0499064A03980131049189B206F025
:103DA00007FC06B0BDE8F081081B00205819002070
:103DB0005939000013B50023044601A96846019350
:103DC000FFF77AFE00990A4B01AA013120461C60D8
:103DD00001F0A0FA08B1FCF75BFF0199054A0098D1
:103DE0000131019189B206F0E3FB02B010BD00BFC2
:103DF000081B00208939000013B50023044601A9DF
:103E000068460193FFF758FE009901AA0131204648
:103E100001F02FF808B1FCF73BFF0199044A009824
:103E20000131019189B206F0C3FB02B010BD00BFA1
:103E3000AD39000037B5002304460D46684601A998
:103E40000193FFF739FE009A01AB01322946204663
:103E500001F0ACF808B1FCF71BFF0199044A009887
:103E60000131019189B206F0A3FB03B030BD00BF60
:103E7000C739000037B5002304460D46684601A93E
:103E80000193FFF719FE009A01AB01322946204643
:103E900001F0CEF908B1FCF7FBFE0199044A009845
:103EA0000131019189B206F083FB03B030BD00BF40
:103EB000E139000070B586B005AE002304460D461A
:103EC00004A8314603920593FFF7F6FD049B039A7D
:103ED000009601332946204601F0DEF908B1FCF7CF
:103EE000D7FE0599044A04980131059189B206F07C
:103EF0005FFB06B070BD00BFFB39000013B50023A7
:103F0000044601A968460193FFF7D6FD00990A4BC4
:103F100001AA013120461C6001F038FB08B1FCF712
:103F2000B7FE0199054A00980131019189B206F066
:103F30003FFB02B010BD00BF101B0020153A00006F
:103F4000F0B585B003AF002305460E4602A83946FA
:103F500014460393FFF7B0FD0B4B1C60029B0097C8
:103F6000013322463146284601F060FB08B1FCF7D8
:103F70008FFE0399054A02980131039189B206F038
:103F800017FB05B0F0BD00BF101B0020393A000040
:103F900037B5002304460D46684601A90193FFF793
:103FA0008BFD009A01AB01322946204601F0A4FBAB
:103FB00008B1FCF76DFE0199044A009801310191A6
:103FC00089B206F0F5FA03B030BD00BF5D3A0000DB
:103FD00070B586B005AE002304460D4604A83146F0
:103FE00003920593FFF768FD0F4B039A1C60BCB169
:103FF00029685960A9689960049B00960133294695
:10400000204601F0ADFB08B1FCF742FE0599074AD6
:1040100004980131059189B206F0CAFA06B070BD64
:10402000C3E90144E8E700BF101B0020793A000013
:1040300007B501AA03F0FCF808B1FCF729FE0198C6
:1040400003B05DF804FB07B501AA03F02CF908B131
:10405000FCF71EFE019803B05DF804FB07B501AA4A
:1040600003F052F908B1FCF713FE019803B05DF8B4
:1040700004FB38B505460C462146284606F026FACC
:104080000028F9D12B6818702388013B238038BDA4
:1040900070B586B005AE002304460D4604A831462F
:1040A00003920593FFF7E5FF049B039A0096013303
:1040B0002946204603F080F808B1FCF7E9FD059990
:1040C000044A04980131059189B206F071FA06B0EC
:1040D00070BD00BF3140000070B586B005AE002352
:1040E00004460D4604A8314603920593FFF7C1FF2D
:1040F000049B039A009601332946204603F09CF85E
:1041000008B1FCF7C5FD0599044A049801310591F1
:1041100089B206F04DFA06B070BD00BF47400000FE
:1041200037B5002304460D46684601A90193FFF701
:10413000A0FF009A01AB01322946204603F0B7F8F0
:1041400008B1FCF7A5FD0199044A009801310191DD
:1041500089B206F02DFA03B030BD00BF5D4000000B
:1041600007B501AA04F03FFB08B1FCF791FD0198E7
:1041700003B05DF804FB000007B5054B01AA04F08D
:1041800023F908B1FCF784FD019803B05DF804FB46
:104190001C1B002007B5064A01AB126804F0FCF9AD
:1041A00008B1FCF775FD019803B05DF804FB00BF92
:1041B0001C1B002007B5002301AA019304F04FFA4D
:1041C00008B1FCF765FD019803B05DF804FB000041
:1041D00007B5054A01AB04F035F808B1FCF758FD06
:1041E000019803B05DF804FB1C1B002007B5074ACB
:1041F00000230193126801AB04F08AF808B1FCF7C0
:1042000047FD019803B05DF804FB00BF1C1B0020B4
:1042100007B5002301AA019304F080F908B1FCF767
:1042200037FD019803B05DF804FB000007B5064AAE
:1042300001AB126804F034FB08B1FCF729FD0198CA
:1042400003B05DF804FB00BF1C1B002007B5064A45
:1042500001AB126804F08AFB08B1FCF719FD019864
:1042600003B05DF804FB00BF1C1B00201FB503ABAF
:104270000093054B1A1F04F03BFA08B1FCF708FD48
:10428000039805B05DF804FB201B00201FB503ABAD
:104290000093054B1A1F03F04DFF08B1FCF7F8FC23
:1042A000039805B05DF804FB201B002007B5054A04
:1042B00001AB04F0D7F808B1FCF7EAFC019803B0B1
:1042C0005DF804FB1C1B002007B501AA04F0A7FB46
:1042D00008B1FCF7DDFC019803B05DF804FB38B5CC
:1042E00005460C462146284606F0F0F80028F9D18C
:1042F0002B6818702388013B238038BD70B586B0C9
:104300000D4605AE00210446059104A83146CDE9CD
:104310000232FFF7E4FF0499019601310091DDE9D3
:1043200002322946204604F025FA08B1FCF7B0FC19
:104330000599044A04980131059189B206F038F9CB
:1043400006B070BD6141000037B500230C4605463C
:1043500001A968460193FFF7C2FFB4B1A3680C4AF4
:104360001360009A01AB01322146284603F0FCFF9E
:1043700008B1FCF78DFC0199064A009801310191C2
:1043800089B206F015F903B030BD2346E7E700BF58
:104390001C1B002079410000F0B585B003AF00235D
:1043A00005460E4602A8394614460393FFF797FFC9
:1043B0000B4B1C60029B0097013322463146284676
:1043C00004F0B0F808B1FCF763FC0399054A0298C1
:1043D0000131039189B206F0EBF805B0F0BD00BFE2
:1043E0001C1B00209541000070B586B005AE00236F
:1043F00004460D4604A8314603920593FFF76FFF6C
:10440000049B039A009601332946204604F0F0F8F5
:1044100008B1FCF73DFC0599044A04980131059167
:1044200089B206F0C5F806B070BD00BFB541000006
:10443000F0B587B005AF1C46054600230E4604A81C
:10444000394603920593FFF74AFF0C4B039A1C6011
:10445000049B01970133009331462346284603F01D
:10446000A7FE08B1FCF714FC0599054A0498013130
:10447000059189B206F09CF807B0F0BD1C1B002026
:10448000D1410000F0B585B003AF002305460E46CC
:1044900002A8394614460393FFF721FF0B4B1C601B
:1044A000029B0097013322463146284603F0F6FE70
:1044B00008B1FCF7EDFB0399054A0298013103911D
:1044C00089B206F075F805B0F0BD00BF1C1B0020D6
:1044D000ED41000037B5002304460D46684601A9AA
:1044E0000193FFF7FCFE009A01AB013229462046FA
:1044F00003F0E4FF08B1FCF7CBFB0199044A0098F4
:104500000131019189B206F053F803B030BD00BF0C
:1045100011420000F0B585B003AF002305460E46FA
:1045200002A8394614460393FFF7D9FE0B4B1C60D3
:10453000029B0097013322463146284604F057F982
:1045400008B1FCF7A5FB0399054A029801310391D4
:1045500089B206F02DF805B0F0BD00BF1C1B00208D
:104560002D420000F0B585B003AF002305460E468E
:1045700002A8394614460393FFF7B1FE0B4B1C60AB
:10458000029B0097013322463146284604F0B4F9D5
:1045900008B1FCF77DFB0399054A029801310391AC
:1045A00089B206F005F805B0F0BD00BF1C1B002065
:1045B0004D420000F0B587B005AF0C4615460646E3
:1045C0000022394604A803930592FFF788FE0D4A9E
:1045D000039BC2E90045049A0197013200922146EB
:1045E0002A46304604F040F808B1FCF751FB059923
:1045F000054A04980131059189B205F0D9FF07B049
:10460000F0BD00BF1C1B00206D420000F0B585B05E
:1046100003AF0C4600230646394602A8154603930D
:10462000FFF75DFE0B4BC3E90045029B009701338A
:104630002A462146304603F047FD08B1FCF728FB27
:104640000399054A02980131039189B205F0B0FF40
:1046500005B0F0BD1C1B00208D42000013B50023E7
:10466000044601A968460193FFF739FE00990A4BF9
:1046700001AA013120461C6003F0D2FE08B1FCF70C
:1046800007FB0199054A00980131019189B205F0B3
:104690008FFF02B010BD00BF1C1B0020AD42000008
:1046A00037B5002304460D46684601A90193FFF77C
:1046B00016FE009A01AB01322946204604F082F929
:1046C00008B1FCF7E5FA0199044A0098013101911B
:1046D00089B205F06DFF03B030BD00BFC9420000D4
:1046E00007B5054A01AB05F0BDFA08B1FCF7D0FAF1
:1046F000019803B05DF804FB281B002038B505467F
:104700000C462146284605F0E1FE0028F9D12B6829
:1047100018702388013B238038BD07B5002301A909
:1047200068460193FFF7EAFF009801A9013005F000
:10473000C5FA08B1FCF7ACFA05F078FB01990098CE
:1047400001310191002289B205F032FF03B05DF81A
:1047500004FB000013B50023044601A96846019339
:10476000FFF7CCFF00990A4B01AA013120461C60DB
:1047700005F052FA08B1FCF78BFA0199054A009846
:104780000131019189B205F013FF02B010BD00BFE5
:10479000281B0020E146000013B50C46014680B1FD
:1047A0007CB10023019360238DF80330226801ABB4
:1047B0000DF1030005F061F808B9019B236002B018
:1047C00010BD0E20FBE71346602204F0F6BF000088
:1047D00030B589B00D461C46ADF8160011461AB327
:1047E00013B300232268079366238DF81B300DF165
:1047F0001B0007ABCDE9031205F03FF890B9DDE9E6
:10480000031207AB0DF1160005F015F850B9074B70
:104810000093DDE9031207AB284605F0B4F908B9A7
:10482000079B236009B030BD0E20FBE7B79A00005C
:104830001346662204F0C1BFF0B587B00E460C9C4B
:104840000746154619465BB354B300232268059307
:1048500064238DF813300DF1130005ABCDE902127E
:1048600005F00BF8D0B90F4B0093DDE9021205AB50
:10487000384605F088F988B90090DDE9021205ABE9
:10488000304605F080F948B90090DDE9021205AB29
:10489000284605F078F908B9059B236007B0F0BDFC
:1048A0000E20FBE7439A00002DE9F04385B00D464A
:1048B000DDF8309090461F460646002834D0B9F106
:1048C000000F31D0002303930A46CDF800906423F3
:1048D00003A904F058FF044630B9D9F800303BB1C1
:1048E000039BAB4200D00924204605B0BDE8F0830D
:1048F0000DF10B0303AA2946304604F0CBFF88B91B
:10490000B8F1000FECD09DF80B3088F80030002F84
:10491000E6D0009303AA3B462946304605F07AF8D4
:104920000028DDD00446DFE70E24DDE72DE9F04165
:1049300088B00F4605909846114622B90E252846A4
:1049400008B0BDE8F081002BF8D00023D8F8002093
:10495000079369238DF81B300DF11B0007ABCDE9E0
:10496000031204F08AFF05460028E8D1DDE90312AE
:1049700007AB05A804F032FF05460028DFD1009000
:10498000DDE9031207AB384605F0FDF805460028BF
:10499000D5D1DDE903121FB9079BC8F80030CEE777
:1049A000059824281BD81F2810D8012830D02C4661
:1049B0002E462038032837D9002EBFD0002CBDD07A
:1049C00007AB2046B0470028E6D037E0A0F121032E
:1049D000BC1C032B12D8DFE803F013151719A0280D
:1049E0001FD006D8402816D0412817D000242646CC
:1049F000DFE7A128FAD1124E3C46DAE7114ED8E79C
:104A0000114ED6E7114ED4E7114ED2E7114ED0E742
:104A1000114E3C46CDE7114E3C46CAE7104E3C468F
:104A2000C7E7104E3C46C4E707AB3846CDE9031252
:104A300004F023FFDDE903120028BDD005467EE720
:104A4000199300001D6F0000B5800000E392000084
:104A5000A3710000E5960000E59A00004B6F00008E
:104A6000A96E0000F79200001346692204F0A5BE6B
:104A7000F8B517461E46002800F0D380002B00F042
:104A8000D080012940F2CF80002A00F0CA801B6844
:104A9000032B40F2C880043B3360437810F8025B7C
:104AA00045EA03252DB26B1E0239762B00F2B78042
:104AB000DFE803F0B33CB5B5B5B5B5B5B5B5B5B53B
:104AC000B5B5B555574F5F5D4B654D676153595B44
:104AD000AF6351B16B6971736D6FB5B5B5B5B5B5F0
:104AE000B5B5B57B87757989777D85837F8B818D1A
:104AF000B5B5B5B5B5B5B5B5B5B5B5B5B5B5B5B566
:104B0000B5B5B58F999795939B919DB5B5B5B5B54D
:104B1000B5B5B5B5B5B5B5B5B5B5B5B5B5B5B5B545
:104B2000B5B5B59FA1A3A5A7A9ABAD003F4C334632
:104B30003A46A0473368002803F1040333601CBFE2
:104B4000002500233D807B80F8BD394CEFE7394CD0
:104B5000EDE7394CEBE7394CE9E7394CE7E7394CFD
:104B6000E5E7394CE3E7394CE1E7394CDFE7394C0D
:104B7000DDE7394CDBE7394CD9E7394CD7E7394C1D
:104B8000D5E7394CD3E7394CD1E7394CCFE7394C2D
:104B9000CDE7394CCBE7394CC9E7394CC7E7394C3D
:104BA000C5E7394CC3E7394CC1E7394CBFE7394C4D
:104BB000BDE7394CBBE7394CB9E7394CB7E7394C5D
:104BC000B5E7394CB3E7394CB1E7394CAFE7394C6D
:104BD000ADE7394CABE7394CA9E7394CA7E7394C7D
:104BE000A5E7394CA3E7394CA1E7394C9FE7394C8D
:104BF0009DE7394C9BE7394C99E7394C97E7394C9D
:104C000095E7394C93E7394C91E7394C8FE7394CAC
:104C10008DE7394C8BE7394C89E7394C87E705201C
:104C200088E70E2090E709208EE700BF054D0000C1
:104C3000855C0000AD580000AD5900000D5A000021
:104C40006D5A0000CD5A00002D5B0000155F00007A
:104C5000035D0000F55D0000555E00000559000091
:104C6000B55E00008D5B0000E55B00009D5F00000D
:104C70001D6000003D610000996100007D60000042
:104C8000DD6000009D730000297400004175000084
:104C900059760000E5760000CD750000FD77000034
:104CA00079780000B574000071770000117300007E
:104CB0000579000081790000318C0000DD8B000057
:104CC000498B0000278A0000898B00007D8A000044
:104CD000E98C00003D8D00002D930000A993000099
:104CE000259400008B940000DF9400005B95000089
:104CF000C195000069960000415800006D5D0000FC
:104D0000B94D0000F0B585B01C4600230D4616468F
:104D10000293074600284BD0002C49D023680F2B64
:104D200002D8092005B0F0BD103B236013460222D3
:104D300023F8042B02AA04F08FFD0028F2D106F11B
:104D4000080302AA2946384604F0A4FD0028E9D148
:104D500006F1100302AA2946384604F07DFD00281A
:104D6000E0D133464FF0FF3243F80C2F2946009034
:104D700002AA384604F025FF0028D3D1F36863B1B6
:104D8000B08803A9FEF774FC0028CBD1094A039B25
:104D90000C2101FB03235B68F360B088FEF754FC31
:104DA0000028BFD1029BAB42BBD110232360B9E7DF
:104DB0000E20B7E7A01A0020F7B51C4600230D46C9
:104DC00017460193064600B3FCB12368042B02D8B2
:104DD000092003B0F0BD053B23601346012223F8F0
:104DE000042B01AA04F038FD0028F2D107F10803D2
:104DF00001AA2946304604F04DFD0028E9D1019B67
:104E0000AB42E5D105232360E3E70E20E1E710B5CF
:104E100086B01C468DF80E108DF80F00114612B3A7
:104E20000BB300232268059373238DF813300DF123
:104E3000130005ABCDE9011204F01FFD88B9DDE9CF
:104E4000011205AB0DF10F0004F017FD48B9DDE9C3
:104E5000011205AB0DF10E0004F00FFD08B9059B22
:104E6000236006B010BD0E20FBE71346732204F04A
:104E7000A4BC30B585B014468DF807000D46C9B105
:104E8000C2B100230393742312688DF80B300DF127
:104E90000B0003AB009204F0F0FC48B9009A03AB9E
:104EA00029460DF1070004F0E8FC08B9039B2360D4
:104EB00005B030BD0E20FBE71346742204F07DBC24
:104EC00070B5064686B014460D46C9B1C2B100237E
:104ED0000593792312688DF813300DF1130005AB9B
:104EE000039204F0CAFC48B90090039A05AB294626
:104EF000304604F048FE08B9059B236006B070BD3B
:104F00000E20FBE7F0B587B00D4603921E4607461C
:104F1000F8B1F3B1002305930A460096792305A959
:104F200004F031FC044628B9336833B1059BAB4229
:104F300000D00924204607B0F0BD074B009305AA16
:104F400003AB2946384604F03CFE0028EED0044668
:104F5000F0E70E24EEE700BF5998000030B585B0A9
:104F60001446ADF806000D46C9B1C2B10023039343
:104F7000782312688DF80B300DF10B0003AB009213
:104F800004F07BFC48B9009A03AB29460DF10600FA
:104F900004F051FC08B9039B236005B030BD0E201E
:104FA000FBE71346782204F008BC000030B589B056
:104FB0000D461C46ADF8160011461AB313B3002374
:104FC000226807937E238DF81B300DF11B0007AB81
:104FD000CDE9031204F051FC90B9DDE9031207ABEF
:104FE0000DF1160004F027FC50B9074B0093DDE9E2
:104FF000031207AB284604F0C6FD08B9079B2360DF
:1050000009B030BD0E20FBE7CD63000013467E22C1
:1050100004F0D3BB30B589B00D461C46ADF8160080
:1050200011461AB313B300232268079375238DF832
:105030001B300DF11B0007ABCDE9031204F01DFC82
:1050400090B9DDE9031207AB0DF1160004F0F3FB94
:1050500050B9074B0093DDE9031207AB284604F073
:1050600092FD08B9079B236009B030BD0E20FBE715
:10507000B16400001346752204F09FBB70B50E4664
:1050800086B005461C4611461AB313B300232268A6
:1050900005937D238DF813300DF1130005ABCDE999
:1050A000021204F0EAFB90B90B4B0093DDE9021207
:1050B00005AB304604F067FD48B90090DDE9021207
:1050C00005AB284604F05FFD08B9059B236006B0D8
:1050D00070BD0E20FBE700BF37980000F0B587B029
:1050E000CDE902320C9F0D46064668B367B3002334
:1050F00005930A4600977D2305A904F044FB044666
:1051000028B93B6833B1059BAB4200D00924204647
:1051100007B0F0BD4FF6FF73ADF812300B4B0093A4
:1051200005AA02AB2946304604F04BFD50B90DF1FB
:105130001203009305AA03AB2946304604F03BFC5A
:105140000028E0D00446E2E70E24E0E7599800008A
:105150002DE9FF470C9E82460F4615461C4653B369
:105160004EB30023D6F8008003930DF10C097C2385
:105170008DF80B3042464B4621460DF10B0004F0F2
:105180007CFBA8B9F82D18D80D4B009342464B462E
:105190002146504604F0F7FC50B9CDF80090434644
:1051A00022462946384604F0B9FB08B9039B336010
:1051B00004B0BDE8F0870E20FAE70720F8E700BF4B
:1051C000A563000013467C2204F0F7BA10B586B040
:1051D0001C468DF80D10ADF80E00114612B30BB33E
:1051E00000232268059376238DF813300DF1130008
:1051F00005ABCDE9011204F040FB88B9DDE90112ED
:1052000005AB0DF10E0004F016FB48B9DDE9011203
:1052100005AB0DF10D0004F030FB08B9059B2360D0
:1052200006B010BD0E20FBE71346762204F0C5BA87
:1052300030B589B00D461C46ADF8160011461AB3BC
:1052400013B300232268079381238DF81B300DF1DF
:105250001B0007ABCDE9031204F00FFB90B9DDE9A9
:10526000031207AB0DF1160004F0E5FA50B9074B35
:105270000093DDE9031207AB284604F084FC08B96B
:10528000079B236009B030BD0E20FBE75F6D000077
:105290001346812204F091BAF0B589B00E460E9CF7
:1052A000ADF81600154619465BB354B300232268C7
:1052B000079384238DF81B300DF11B0007ABCDE95C
:1052C000031204F0DAFAD0B9DDE9031207AB0DF1ED
:1052D000160004F0B0FA90B90B4F0097DDE9031205
:1052E00007AB304604F04FFC48B9DDE903120097E4
:1052F00007AB284604F047FC08B9079B236009B0B8
:10530000F0BD0E20FBE700BF7D6D00001346842238
:1053100004F053BA70B5064686B014460D46C9B1BE
:10532000C2B1002305937B2312688DF813300DF171
:10533000130005AB039204F0A0FA48B90090039A59
:1053400005AB2946304604F01EFC08B9059B2360D6
:1053500006B070BD0E20FBE7F0B587B00D46039296
:105360001E460746F8B1F3B1002305930A4600969E
:105370007B2305A904F007FA044628B9336833B142
:10538000059BAB4200D00924204607B0F0BD074B77
:10539000009305AA03AB2946384604F012FC002806
:1053A000EED00446F0E70E24EEE700BF27660000CB
:1053B00070B5064686B014460D46D1B1CAB1002379
:1053C00005937A2312688DF813300DF1130005ABA5
:1053D000039204F052FA50B9074B0093039A05ABBD
:1053E0002946304604F0CFFB08B9059B236006B080
:1053F00070BD0E20FBE700BFB164000013467A22A7
:1054000004F0DBB92DE9F04186B0DDE90C458846B2
:1054100017461E46ADF80E00002C37D0002D35D0B3
:105420000023059386232A688DF81330214605ABA7
:105430000DF11300029204F020FA20BB029A05AB92
:1054400021460DF10E0004F0F6F9E0B9104B00937F
:10545000029A05AB2146404604F095FB98B90D4BE6
:105460000093029A05AB2146384604F08CFB50B9F4
:10547000094B0093029A05AB2146304604F083FBAA
:1054800008B9059B2B6006B0BDE8F0810E20FAE755
:1054900021670000C166000067670000134686228E
:1054A00004F08BB9F0B587B0DDE90C4517461E4610
:1054B000ADF80E008DF80D10002C35D0002D33D036
:1054C000002305937F232A688DF81330214605AB0E
:1054D0000DF11300029204F0D0F918BB029A05AB4B
:1054E00021460DF10E0004F0A6F9D8B9029A05ABD9
:1054F00021460DF10D0004F0C0F998B90B4B009353
:10550000029A05AB2146384604F03DFB50B9084BE2
:105510000093029A05AB2146304604F034FB08B9EB
:10552000059B2B6007B0F0BD0E20FBE7CD630000AC
:10553000B16C0000F0B587B00D4603921E460746D9
:10554000F8B1F3B1002305930A4600967F2305A91D
:1055500004F019F9044628B9336833B1059BAB420E
:1055600000D00924204607B0F0BD074B009305AAE0
:1055700003AB2946384604F024FB0028EED004464D
:10558000F0E70E24EEE700BFF16C000070B50646B0
:1055900086B014460D46C9B1C2B1002305936D23F0
:1055A00012688DF813300DF1130005AB039204F06F
:1055B00064F948B90090039A05AB2946304604F0D7
:1055C000E2FA08B9059B236006B070BD0E20FBE728
:1055D0002DE9FF410D4690461E46074620B90E2490
:1055E000204604B0BDE8F081002BF8D000230393DF
:1055F0000A4600966D2303A904F0C5F80446002866
:10560000EED1336823B1039BAB42E9D00924E7E72D
:10561000B8F1000FE3D0434603AA2946384601F00B
:10562000E0F80028EFD00446DAE7000070B588B053
:105630000E460C9CADF81600154619465BB354B3E4
:1056400000232268079390238DF81B300DF11B0077
:1056500007ABCDE9031204F010F9D0B9DDE903126C
:1056600007AB0DF1160004F0E6F890B90B4B009370
:10567000DDE9031207AB304604F085FA48B9009023
:10568000DDE9031207AB284604F07DFA08B9079B51
:10569000236008B070BD0E20FBE700BFA96F0000BB
:1056A000F0B587B00D4603921E460746F8B1F3B138
:1056B000002305930A460096902305A904F063F899
:1056C000044628B9336833B1059BAB4200D00924A6
:1056D000204607B0F0BD074B009305AA03AB29464F
:1056E000384604F06EFA0028EED00446F0E70E24A7
:1056F000EEE700BF3D70000030B589B00D461C4696
:10570000ADF8160011461AB313B3002322680793AD
:105710008F238DF81B300DF11B0007ABCDE9031271
:1057200004F0ABF890B9DDE9031207AB0DF11600F8
:1057300004F081F850B9074B0093DDE9031207AB81
:10574000284604F020FA08B9079B236009B030BD51
:105750000E20FBE77970000013468F2204F02DB86D
:10576000F0B587B00E460C9C0746154619466BB33C
:1057700064B300232268059372238DF813300DF172
:10578000130005ABCDE9021204F077F8E0B9104B35
:105790000093DDE9021205AB384604F0F4F998B93C
:1057A0000C4B0093DDE9021205AB304604F0EBF937
:1057B00050B9094B0093DDE9021205AB284604F00D
:1057C000E2F908B9059B236007B0F0BD0E20FBE7A6
:1057D0007B98000025630000C96D0000F0B587B01C
:1057E0000D4603921E460746F8B1F3B10023059318
:1057F0000A460096722305A903F0C5FF044628B99E
:10580000336833B1059BAB4200D00924204607B072
:10581000F0BD074B009305AA03AB2946384604F0B8
:10582000D0F90028EED00446F0E70E24EEE700BFE2
:105830009598000010B4019CA4465DF8044B6047A5
:105840002DE9FF411D4600230E469046039307466F
:1058500040B33DB32B68272B04D80924204604B05D
:10586000BDE8F081283B2B6013461D2223F8042B52
:1058700003AA03F0F1FF04460028EFD1FDF7BEFEB6
:10588000094B009303AA08F1080331463846FFF795
:10589000D1FF04460028E1D1039BB342DDD1282388
:1058A0002B60DBE70E24D9E795690000F7B51C46AD
:1058B00000230D4617460193064600B3FCB123684A
:1058C000042B02D8092003B0F0BD053B236013462A
:1058D000172223F8042B01AA03F0BEFF0028F2D1FF
:1058E00007F1080301AA2946304603F0D3FF002838
:1058F000E9D1019BAB42E5D105232360E3E70E200C
:10590000E1E700002DE9FF411D4600230F46164642
:1059100002938046002840D0002D3ED02B68092BF2
:1059200004D80924204604B0BDE8F0810A3B2B606E
:105930001346192223F8042B02AA03F08DFF044614
:105940000028EFD1164B009302AA06F1080339464E
:105950004046FFF76FFF04460028E3D1B08803A953
:10596000FDF702FE28B1029BBB42DAD10A232B606D
:10597000D8E70C4B0C4A0093039B242101FB032323
:10598000404602AA3946FFF755FF20B9B088FDF717
:10599000D7FD0028E7D00446C4E70E24C2E700BFC5
:1059A000AD6A0000F16C000058190020F0B585B018
:1059B0001C4600230D4617460393064610B30CB34E
:1059C00023680B2B02D8092005B0F0BD0C3B2360E7
:1059D0001346122223F8042B03AA03F03DFF0028EC
:1059E000F2D1094B009303AA07F108032946304678
:1059F000FFF720FF0028E7D1039BAB42E3D10C2344
:105A00002360E1E70E20DFE7656C0000F0B585B0AC
:105A10001C4600230D4617460393064610B30CB3ED
:105A200023680B2B02D8092005B0F0BD0C3B236086
:105A300013461F2223F8042B03AA03F00DFF0028AE
:105A4000F2D1094B009303AA07F108032946304617
:105A5000FFF7F0FE0028E7D1039BAB42E3D10C2314
:105A60002360E1E70E20DFE7816C0000F0B585B030
:105A70001C4600230D4617460393064610B30CB38D
:105A80002368052B02D8092005B0F0BD063B236032
:105A900013461A2223F8042B03AA03F0DDFE002884
:105AA000F2D1094B009303AA07F1080329463046B7
:105AB000FFF7C0FE0028E7D1039BAB42E3D10623EA
:105AC0002360E1E70E20DFE74D6B0000F0B585B005
:105AD0001C4600230D4617460393064610B30CB32D
