:020000022000DC
:1070000000000420757302005D7302005F730200CC
:1070100061730200637302006573020000000000E8
:107020000000000000000000000000006773020084
:1070300069730200000000006B7302006D730200B0
:10704000059802006F730200A19C02006F7302009A
:107050006F7302006F730200219B02006F730200C6
:107060006F7302006F7302006F7302006F73020090
:107070006F7302006F7302006F7302006F73020080
:107080006F7302009D8802006F7302006F7302002D
:107090006F7302006F73020085C802006F730200F5
:1070A0006F7302006F7302006F7302006F73020050
:1070B0006F7302006F730200000000000000000008
:1070C0006F7302006F7302006F7302006F73020030
:1070D0006F7302006F7302006F7302006F73020020
:1070E0006F7302006F7302006F73020000000000F4
:1070F000000000006F730200000000006F730200C8
:10710000000000000000000000000000000000007F
:10711000000000000000000000000000000000006F
:10712000000000000000000000000000000000005F
:10713000000000000000000000000000000000004F
:10714000000000000000000000000000000000003F
:10715000000000000000000000000000000000002F
:10716000000000000000000000000000000000001F
:10717000000000000000000000000000000000000F
:1071800000000000000000000000000000000000FF
:1071900000000000000000000000000000000000EF
:1071A00000000000000000000000000000000000DF
:1071B00000000000000000000000000000000000CF
:1071C00000000000000000000000000000000000BF
:1071D00000000000000000000000000000000000AF
:1071E000000000000000000000000000000000009F
:1071F000000000000000000000000000000000008F
:10720000354936480A1A02D0072291438D4634493F
:1072100034480A1A06D00722914381F309880222D2
:1072200082F3148830483149314A00F044F831483B
:107230003149324A00F03FF831483249324A00F0D1
:107240003AF832483249334A00F035F83248334987
:10725000334A00F030F833483349344A00F02BF811
:1072600033483449344A00F026F83448344900227F
:1072700000F02CF833483449002200F027F8334856
:107280003349091A082902DB002202604160314AB1
:1072900090471F481F49884205D00268043003B454
:1072A000904703BCF7E700208646EC46002000210B
:1072B000294A9047FEE7884207D0521A05D0037842
:1072C00001300B700131013AF9D17047884202D088
:1072D00002700130FAE770470000042000E003204C
:1072E000000004200000042004E50200E82A002039
:1072F000502B0020D0730200D073020054D502003E
:1073000004E50200E82A0020E82A002058D60200FE
:1073100058D6020058D6020058D6020058D60200AD
:1073200058D6020058D6020058D6020003E50200E3
:107330006CE50200502B0020502B0020502B002029
:10734000843E0020843E0020843E0020843E0020B5
:10735000845E00209D73020009AF0200FEE7FEE795
:10736000FEE7FEE7FEE7FEE7FEE7FEE7FEE7FEE7F5
:1073700000F002B8FFF7FCBF0F484FF00701884349
:1073800085460E4880470E48016841F4700101604F
:10739000BFF34F8FBFF36F8FFFF732BF09480A4922
:1073A0000A4A884207D0521A05D0037801300B7080
:1073B0000131013AF9D17047000004201D9202000A
:1073C00088ED00E058D60200E82A0020E82A0020D4
:1073D0007047000007B5044B0093044A402300F0B7
:1073E00032F803B05DF804FBF1730200512B00206A
:1073F0002DE9F84388461446B2B10F4B0F4E0325D2
:10740000002743F00109224608EB0701002003F0A2
:107410000FFF0744241A48B933782BB14FF47A4050
:10742000C847013D02D13570BDE8F88301233370B0
:10743000002CE8D1F8E700BF60D60200502B0020F6
:10744000704703F029BFF0B595B01D4616460846B3
:107450000C4601F0D5FD1A9B0D93CDE9086500257A
:107460002B46082205A920460A958DF82C500C952C
:1074700001F0E3FD079B0293069B03939DF81430F4
:107480008DF8115003F00302012A1DD1BDF814201C
:10749000059DC3F3C203C2F383168DF81030B2000A
:1074A00008230EA9204601F0C8FDC5F3952508ABB9
:1074B0000093324602AB0EA9284600F027FB204677
:1074C00001F0A2FD15B0F0BD022AF8D1BDF81650AA
:1074D000C3F3C203C5F389158DF810300827082DB2
:1074E0002E4628BF08263B4632460EA9204601F00C
:1074F000A4FDAD1B08AB02AA31460EA8374400F02C
:1075000069FB002DEBD1DAE708B5FFF79AFF0448D5
:10751000042100F065FA034B01225A7108BD00BF37
:1075200048D60200E82A0020037813F0040216D09F
:1075300003F00303012B03D0022B09D00120704775
:107540000A6800880232C0F3831002440A60F5E73B
:107550000B684288023303EB92130B60EEE7104690
:10756000704700002DE9F04F87B000230446861CC9
:107570000DF107000F4615468DF8073001F020F891
:10758000404A51683960936803F580735B1A9246EC
:1075900002F21C4702F5836902F21448B3421AD37F
:1075A0000020002D69D004F00F039B0143F0050378
:1075B00063F30F00DAF80430DAB203321E444AF8FB
:1075C00022009DF80700CAF8046001F01DF80120B0
:1075D00007B0BDE8F08F0121384601F03CFA48467B
:1075E00001F051FA404601F04EFADAF80800029034
:1075F000C0B203300AEB800002A9FFF795FF029B9F
:1076000030BBDAB20AEB8202D16803919A1C0133D3
:10761000DBB20AEB83030292D3F80CB001F0030350
:10762000012B22D0022B15D08346404601F02EFAC2
:1076300010B1029BCAF808305946384601F00BFADF
:10764000DAF80830DAF8042003F580739B1AA5E70E
:10765000D8B2CEE7BDF80E30C3F3891303334FEA37
:107660001B4B02EB93030293DFE7BDF80C30C3F32F
:1076700083134FEA1B4B1344F5E7A40544F00600BF
:1076800098E700BF642C0020064B074810B5002285
:107690001A7001F06EFC044610B9044801F016FDA2
:1076A000204610BD642C0020B4D502009CD60200F8
:1076B00030B50A4C71B10A4A0A49121BD20800239C
:1076C0009A4201D1002030BD31F82350854202D0CA
:1076D0000133F5E7034654F83300F4E7C8D5020058
:1076E00048D60200E82A0020094B013903EBC0000C
:1076F000032909D8DFE801F00A02040604207047D4
:107700000079704740797047002070470220704729
:10771000C8D50200034BD3E90130C31A584258417F
:10772000704700BF642C00202DE9F04186B0FFF7C0
:10773000F1FF0546002840F0E680744CC4F81804B8
:10774000BFF34F8FA3680293DBB2033304EB8300D4
:1077500002A9FFF7E9FE029B18B1D4F81824002A09
:1077600055D0DAB2991C013304EB8202DBB204EB90
:107770008303D268DB68049302F00303022B0392B5
:1077800002914FD1BDF80E306148C3F38917502FD5
:107790003E4628BF502666F38F1306F10801ADF868
:1077A0000E3001F0FEFB0546002800F0978001F046
:1077B00027FC002303A90822284601F034FC029983
:1077C000CB43DBB20133C9B20331B6EB830F4FEACF
:1077D000830804EB810122D908234246A6EB080660
:1077E000284601F020FCF6B24A4908F10803324667
:1077F000284601F018FC029B033703EB970702971A
:10780000D4F81834002B41D1D4F8106451E06268E8
:107810009A4299D8A260284606B0BDE8F0810823B4
:107820003246E5E7012B59D1BDF80C303848C3F397
:107830008311062928BF062161F3891302318900CB
:10784000ADF80C3001F0ADFB0546002846D001F044
:10785000D7FB0023082203A9284601F0E4FB0026F9
:10786000BDF80C20C2F38312B300964203F1080363
:10787000C6D202994A1CC9B20331029204EB8101BB
:107880000422284601F0CFFB0136E9E7284601F043
:10789000BBFBFFF73FFF80F00100C5B2BBE7F36819
:1078A0005B7923B1336829461B6830469847F368F3
:1078B0001E68002EF3D1284601F0A6FB0DF107004B
:1078C0008DF8076000F07CFED4F818340BB9029BE9
:1078D000A3609DF8070000F097FEDAE7D4F81044A3
:1078E00054B90D4B0D480E49C01AC008000440F0B1
:1078F000020000F05DF8CCE7236820469B689847BB
:10790000E3681C68ECE7002585E700BF642C0020D5
:10791000B4D50200702C0020C8D50200F0D50200BA
:1079200084D602002DE9F34704460E46924601A98B
:10793000012218469946FFF715FE1B4F10B3019D13
:107940004FF00008AA1CC84508EB020123D11748D4
:10795000002101F051F880F31000000440EA1440C7
:10796000E4006B1C04F03804DBB2EDB244F0010417
:1079700007EB8303033544EA881444EA8624D8607D
:1079800047F825403B781BB1FFF7CEFE0028FBD11E
:1079900002B0BDE8F087C9B207EB81015AF8283080
:1079A000CB6008F10108CEE7642C00208030002075
:1079B00000231A46FFF7B6BF07B50123019201AABB
:1079C000FFF7B0FF03B05DF804FB07B5CDE9002376
:1079D00002236A46FFF7A6FF03B05DF804FB000030
:1079E00030B50F49D1F8102403460020144634B9AD
:1079F000DC6820714AB9C1F81034226030BDE468F7
:107A00002579854206D02468F1E7D26811682160A3
:107A10001360F3E701300A28E8D14FF0FF30EDE7BB
:107A2000642C0020084A38B50123D2F810441370A2
:107A30001D4604B938BDE3685D71236820465B6864
:107A40009847E3681C68F4E7642C002007B50346F8
:107A50000846197A052911D05B7A2BB1094A0A49DF
:107A6000019001F076F801980849019001F071F851
:107A7000019803B05DF804EB01F060B8002AF8D07B
:107A8000F2E700BFA8D60200ADD602000DDE02006C
:107A900030B5C38885B004460D4633B1144A009210
:107AA0001449154A284601F054F8217A05291DD0B9
:107AB000637A4BB1A088FFF717FE104B104953F8BB
:107AC0002020284601F045F8227A0E4BA08853F872
:107AD000222003920021FFF7EBFD039A0A49034697
:107AE000284605B0BDE8304001F033B805B030BDE0
:107AF000A8D60200B8D60200B0D6020034D70200E1
:107B0000ADD6020058D70200D0D602002DE9F043CE
:107B100085B01F460C9D002395F80C902B730646EC
:107B20000C46904629463846FFF7B2FFB8F1060FDB
:107B300009D8DFE808F00412181F28334000314646
:107B4000284601F006F8002229463846FFF77EFF56
:107B500085F80C9005B0BDE8F083226831462846D0
:107B600000F0F7FFEFE7D4E900233146284600F0A4
:107B7000F0FFE8E7A36800933146D4E900232846E4
:107B800000F0E7FFDFE7E3680193A3680093314665
:107B9000D4E90023284600F0DCFFD4E723690293F0
:107BA000E3680193A36800933146D4E90023284693
:107BB00000F0CFFFC7E76369039323690293E3688B
:107BC0000193A36800933146D4E90023284600F0CE
:107BD000C0FFB8E708292DE9F74F80460E46174643
:107BE0001C463CD8002593F80C901D73194610468E
:107BF000FFF74EFFDFF888A0DFF888B0AE4231D93A
:107C000018F805205946204600F0A3FF0135082D3D
:107C1000F4D11949194DDFF870A0204600F099FF02
:107C20004FF0000B5E4522D918F80B207E2A05D8AC
:107C30001046019205F08CF8019A00B92E225146A7
:107C4000204600F086FF0BF1010BBBF1080FE9D1D4
:107C5000012221463846FFF7F9FE84F80C9003B064
:107C6000BDE8F08F5146204600F073FFCEE729466D
:107C7000204600F06EFFE6E7E4D60200E2D60200FE
:107C8000E0D60200DAD60200E6D60200C30710B53D
:107C900007D4F023054A4008145C234019431154CB
:107CA00010BD0901C9B20F23F4E700BF5031002015
:107CB00030B5094B1C78094B196800239C4202DC43
:107CC0000022104630BD11F83350854201EBC3024B
:107CD000F7D00133F2E700BF1C31002070310020E3
:107CE00013B504460191FFF7E3FF38B143682BB1A8
:107CF0000199204602B0BDE81040184702B010BDFF
:107D0000034B044819680022490800F05CBA00BF20
:107D1000203100202831002010B5C0B2FFF7C8FF85
:107D20000446007801F0EEFE63785A1E5342534138
:107D3000834208D1044BD3E90023134303D1BDE8A8
:107D40001040FFF7DDBF10BD4831002037B54308B4
:107D5000354AD35CC2074CBF1B0903F00F0304462E
:107D60000D46042B35D8DFE803F003252C383C0002
:107D700079B30121FFF78AFF00230DF107008DF889
:107D8000073000F01DFC0120A4F12003C4F1200104
:107D9000264A20FA01F100FA03F30B43A040D2E98E
:107DA000004120430B43C2E900039DF8070000F0A7
:107DB0002BFC0EE0002918BF02212046FFF766FFCA
:107DC00007E041B10321FFF761FF01212046FFF7E2
:107DD00087FF03B030BD0121EFE70029F9D104216D
:107DE000EBE709B10321E8E7FFF750FF29462046FA
:107DF000FFF776FF0DF107008DF8075000F0E0FB6C
:107E00000120A4F12003C4F12001084A20FA01F165
:107E100000FA03F30B43A040D2E9004124EA00003A
:107E200021EA0303BFE700BF5031002048310020A2
:107E30002DE9F041124E134F00243378A34208DCA1
:107E4000114BD3E90023134318D0BDE8F041FFF7ED
:107E500057BF3D6805EBC40815F8340001F052FE29
:107E600098F801305A1E53425341181A4142414179
:107E700015F83400FFF76AFF0134DEE7BDE8F08152
:107E80001C3100207031002048310020092AF7B54C
:107E900005460C4616463CD901F064FDD8B11E4B90
:107EA0001E481D601E4B1F4F1C701F4B00212022BF
:107EB0001E6004F0ADFF1D4B00200021C3E900014E
:107EC000013CE4B20326FF2C0BD1194A19480021CA
:107ED00000F06EF903E001F0FFFC0028DFD003B0F2
:107EE000F0BD9DF8063015F834008DF8046005EB00
:107EF000C40223F007038DF8063001A993788DF8AA
:107F000005303A4601F038FD013CE4B20028DAD0F1
:107F1000E5E70720E3E700BF703100205031002083
:107F20001C310020197D0200203100204831002042
:107F3000317E020078D7020070B5084D084E00244B
:107F40002B789C4201D3002070BD3368012113F8C7
:107F5000340001F08DFD0134F2E700BF1C31002038
:107F6000703100201FB50021039001AA44F20100E6
:107F7000CDE9011100F004F805B05DF804FB000044
:107F800010B572B6FFF74EFDFFF7CEFB0028FBD110
:107F9000104B114C1149E41AE408240444F0010088
:107FA000FFF706FD0E4B1B68DB0700D500BE0D4931
:107FB00044F00200FFF7FCFCBFF34F8F0A490B4B64
:107FC000CA6802F4E0621343CB60BFF34F8F00BF77
:107FD000FDE700BFC8D50200F0D502007CD7020043
:107FE000F0ED00E088D7020000ED00E00400FA05A3
:107FF00049B152B1531E1A4007D18260016083809B
:10800000C260104670470E2070470920704710B5B7
:108010008468C2688388121B934208D3C2681340E5
:108020000268D154C3680133C360002010BD04202E
:10803000FCE78268C3689A420AD08268838813404A
:108040000268D35C0B708368013383600020704743
:1080500005207047D0E90223D1E90201994208BF07
:1080600090422CBF012000207047000008B50B484B
:1080700000F0FDFB0A4B0B49D3E900231218D1E9AC
:10808000000143F100038B4208BF824203D212F188
:10809000807243F100031046194608BDF02A002003
:1080A00078310020F031002037B505460C460A48EB
:1080B00001A900F010FC60B10570446001A90648F8
:1080C00000F033FC18B1054800F0D6FB002003B0E7
:1080D00030BD0420FBE700BFDC310020F02A002087
:1080E00038B5184B1B78044613B90025284638BD0F
:1080F0000028FAD0037F03F0FF05002BF5D0FFF72F
:10810000B5FFD4E90223994208BF904214D32369F2
:1081100003B92377D4E90530984721690029E4D0D1
:10812000237F03F0FF05002BDFD0D4E90223521890
:1081300043F10003C4E902230348214600F0E5FFB0
:10814000D4E700BF80310020A4D7020013B5114B43
:1081500011491868019008231048582200F0A8FB24
:10816000044698B90E4A0F4801A900F071FA044676
:1081700060B90C48012100F05DFB01230A4A09485F
:10818000194600F0BFFA094B01221A70204602B0CE
:1081900010BD00BFA0D7020084310020DC310020D8
:1081A00011820200F02A0020FFFF7F0080310020B2
:1081B0003AB103685A614A1E514251411961002087
:1081C00070470720704738B5037F04460D4683B9D2
:1081D0008261FFF74BFF2369401941F10001C4E9B7
:1081E000020103B1256121460020BDE83840FFF7B8
:1081F0005BBF002038BD0023014603770120FFF755
:1082000053BF0000014800F032BB00BFF02A00203D
:108210002DE9F04F85B0804600F014FB40B15A4A7A
:10822000D2E9003113F1807341F10001C2E900315C
:108230000021404600F015FB38B1544E336823B19D
:108240003068FFF74DFF002333600121404600F006
:1082500008FB20B1FFF70AFF4D4BC3E900014D4871
:108260004A4F4D4EDFF8389103A900F06EFB00280D
:1082700045D1DFF82491454EDFF828A1484600F0AB
:108280005AFF3368002875D07BB13368D0E902010A
:10829000D3E90223994208BF90422DD233681B7F55
:1082A0001BB13168484600F030FF484600F03DFF02
:1082B000D0E902B307460193FFF7D8FE019BBBEB61
:1082C000000463EB0105012C75F1000345DBB4F5F7
:1082D000350F40D3FFF796FF304A02444FF4960320
:1082E0000021504600F02EFA00283ED1336813B921
:1082F000404600F0FFF9376005B0BDE8F08F037825
:10830000012B1DD0022B09D14FF0000A304600F09E
:108310000CFF002834D080F81CA0F7E73BB9416877
:108320000B7F23B901230B77304600F0EEFE03A943
:10833000184800F035FB03A9164800F006FB96E745
:1083400041683B68994202D100233B60EFE7304629
:1083500000F0F4FEEBE7BA68C0E70021504600F0F9
:1083600076FA3846FFF7BCFE01E00D28F9D000236D
:10837000336083E7002BBFD1404600F0BFF9BBE775
:10838000012389F80030D2E778310020F83100204D
:10839000F0310020DC310020A4D70200FFFFB40040
:1083A00080310020F02A00200648074A0378074958
:1083B000D35C012213B1043002F0F8B80C3001F0A4
:1083C000A7BE00BFF82A002074320020243200200B
:1083D0000648074A03780749D35C012213B10430E9
:1083E00002F090B80C3001F041BE00BFF82A002026
:1083F000743200202532002037B50578012D0BD0CE
:10840000022D2ED065B91E491E48FFF712FE002826
:1084100032D1FFF7DDFF03E0037A1BB9FFF7C4FF9A
:1084200003B030BD4368184C19782046FFF7EFFDC4
:1084300080B18DF800500190144B68461B68984736
:10844000A168E368A2885B1A9A42E7D2104B012226
:108450001A70E5E7A268E3689A42F1D08DF800004F
:10846000EAE7C3688DF800500193FFF79DFF074BC3
:1084700068461B689847D3E703238DF80030F6E77A
:10848000253200201432002000320020FC31002070
:1084900010320020F0B51F46234B89B004461A6005
:1084A0000D4600293DD08A8820480968FFF7A0FDC5
:1084B000002834D1AA89A9681D48FFF799FD002832
:1084C0002DD11C4E0FCE6D460FC596E80F0085E8E6
:1084D0000F0063690693237C174A18488DF81C70B7
:1084E000003B18BF01238DF81430637C002B14BFB0
:1084F0000E2300238DF81530E3680293A3680393DD
:108500002368019369466368009301F001F930B96B
:108510000B4B18702368013301D0FFF745FF09B0FA
:10852000F0BD0720FBE700BFFC3100200032002037
:1085300014320020B0D70200F9830200F82A00208C
:108540001032002070B5084D014608482E78FFF71C
:1085500070FD044636B100232B70FFF725FF08B1EC
:10856000FFF700FD204670BD1032002000320020D1
:1085700010B501460E48FFF74AFD0446A8B90D485C
:108580000D4A0378D35C63B1043002F003F860B99C
:108590000A490748FFF74DFD38B9BDE81040FFF71D
:1085A00017BF0C3001F0A8FDF1E7204610BD00BF59
:1085B00014320020F82A00207432002025320020D6
:1085C00070B5EFF3108672B60C4A946801239CB91B
:1085D00093600B4B0B4DD3F8801029401160C3F80A
:1085E0008050D3F8841051604FF0FF32C3F88420DC
:1085F000047006B962B670BD0370FAE72832002035
:1086000000E100E0FC06FFBD084B9A6810B55AB1C6
:1086100050B9EFF3108172B6054A1C6814605C68AB
:108620005460986001B962B610BD00BF28320020C6
:1086300000E100E0435882B03BB10023435043586F
:108640000193019B012002B070471846FBE7000030
:10865000F8B5204B4479204D43F824201F4A204B85
:1086600005EBC4049B1A2279DB081B0432B143F0EA
:1086700002001C49FFF79CF90820F8BD02680C882D
:10868000C2F8084590F904608A7804795201002EF6
:10869000D2B219DB14498F1987F800230122760919
:1086A00004F01F0402FA04F441F82640427905EB75
:1086B000C201012445F832000C7143F003000B495C
:1086C000FFF776F90020D8E7094904F00F040A55AE
:1086D000ECE700BF3C32002034320020C8D5020055
:1086E00000D60200D0D7020000E100E0F2D702007D
:1086F00014ED00E0036801221A607047036801224C
:108700005A60704773B501F15005AD000068ADB215
:108710004FF480348C400026C0F80843C0F848432A
:10872000465101F5A8714559019522F07F42019DFE
:1087300040F82120C0F844430BB1C0F8044302B014
:1087400070BD00002DE9F74F0D4622F07F4402680E
:108750004FF4803705F150068F408046B60002EB9B
:108760008500C2F84873B6B2C2F80873D2F804158F
:1087700099464FF0000BD0F84035C0F8401542F84C
:1087800006B05B1A9259009223F07F43012B009AA6
:108790004FEA850A0CD1264B4FF4806043F0010369
:1087A0009847D8F8003043F806B09B590193019BD5
:1087B000D8F80010D1F80465C1F84473A31B23F066
:1087C0007F43012B1CD11A4B05F5A875013443F0EA
:1087D000010341F825404FF480609847D8F80030F5
:1087E000D3F804359E4209D1D8F800300020C3F8F0
:1087F0004473C3F8047303B0BDE8F08F0D20FAE7AB
:108800008A44C9F1FF13CAF84045D1F80405221A79
:10881000013A22F07F4203F57F439342EED3002AD0
:10882000E2D10134CAF84045D1F804359842DAE77C
:1088300010D8020003680222C3F8442309B1C3F828
:108840000423704700684FF48271FFF7F3BE4FF4C2
:10885000803303FA01F10368C3F84813C3F808131F
:10886000704750318900006889B2FFF7E3BE0368A2
:10887000D3F804057047000090F90430002B09DBA1
:108880005A09012103F01F0301FA03F340320249A0
:1088900041F82230704700BF00E100E0024B034A7C
:1088A0001B681068184700BF3C320020343200209B
:1088B00010B561B1B2FBF3F403FB1424A4B244B9C4
:1088C000C0E9001484608281C381204610BD0E205F
:1088D000FCE70920FAE737B550E8013F9DB2C489AB
:1088E00025448489A54228BF2D1B0489A54202BFC7
:1088F000BFF32F8F002207E0C5EA030540E80154CB
:10890000002CE9D14FF001028DF803200193019B67
:108910009DF803200B6002F0FF0322B10B88006872
:10892000184403B030BD1846FBE70A884B889A42CA
:1089300009D150E8012FC2EA024240E80123002B8E
:10894000F7D1012070470020704737B550E8023F4B
:108950001FFAA3F5C488A54202BFBFF32F8F0022E0
:108960000DE0C48925448489A54228BF2D1BC3EA94
:10897000054540E80254002CE8D14FF001028DF883
:1089800003200193019B9DF803200B6002F0FF037D
:1089900022B14B880068184403B030BD1846FBE78D
:1089A0000A884B889A4209D150E8022FC2EA224233
:1089B00040E80223002BF7D10120704700207047C8
:1089C00001F01F024B090121914000EB830000F0F0
:1089D0001EB801F01F0301229A404B0900EB8300EF
:1089E000D14300F02CB84B0901F01F0150F82300CF
:1089F000C84000F00100704710B5034653E8000F6F
:108A00000A4643E8002494F0000FF7D110BD10B5DA
:108A1000034653E8002F42EA010043E8000494F0C3
:108A2000000FF6D110BD10B5034653E8000F00EA61
:108A3000010243E8002494F0000FF6D110BD10B5F8
:108A4000034653E8002F02EA010043E8000494F0D3
:108A5000000FF6D110BD10B5034653E8002F02EB0E
:108A6000010043E8000494F0000FF6D110BD10B5EA
:108A7000034653E8002FA2EB010043E8000494F002
:108A8000000FF6D110BD0121FFF7C1BF0021FFF794
:108A9000CABF10B590B1D0E9012301689B1ADBB2BF
:108AA0000A60013BDBB2FF2B026802D1002010718B
:108AB00010BD11684C1C14600B70F2E70E20F7E734
:108AC00037B5054600240DF107008DF80740FFF784
:108AD00077FD2A686B68116899420ED9481E1060AC
:108AE00011F8014CEB68298A01FB0434AB68117959
:108AF0001B1ADBB2994238BF13719DF80700FFF7CC
:108B000083FD204603B030BD37B5054600230DF187
:108B100007000C468DF80730FFF752FD2A681368EE
:108B2000591C1160E968641A298AB4FBF1F41C70BD
:108B30009DF80700FFF768FD03B030BD826810B5EF
:108B400004462AB143690168006998470023A3607D
:108B500010BD0EB403B5039921B104AB01AA019372
:108B600000F076F802B05DF804EB03B070470A2914
:108B700038B504460D4602D10D21FFF7F8FFA36872
:108B80002268591CA160D554D4E901329A4204D319
:108B90002046BDE83840FFF7D1BF38BD2DE9F84F7A
:108BA0009846DDE90A43154682460F460A464FF0CD
:108BB0000109AA420FD2C14538BFC14613F0010BCB
:108BC00001D16CB900240126B8F1010F1BD908F1BD
:108BD000FF386E43F8E709F10109B2FBF5F2E8E767
:108BE0009B070ED5B8F1000F0CBF30262026A145FB
:108BF000E9D2013C31465046FFF7B9FF002CF6D1CF
:108C0000E0E72026F3E7B7FBF6F39D42E1D9DFF872
:108C10003C80B7FBF6F3504618F8031006FB1377B9
:108C2000FFF7A5FF3346AB42B6FBF5F6F1D2BBF139
:108C3000000F02D00CB1A14501D3BDE8F88F20216F
:108C40005046013CFFF793FFF4E700BF16D802003F
:108C50002DE9F74F054617468846002900F0428166
:108C600018F8011B49B92B7B002B00F03B812846EB
:108C700003B0BDE8F04FFFF761BF252940F0B78092
:108C8000002698F800302D2B424608F1010823D029
:108C9000302B24D02B2B25D000242A2B02F10101CC
:108CA00023D13B681A1D1B683A601C440A4613789E
:108CB0002E2B26D101324FF0000A104610F8011B6E
:108CC000A1F1300CBCF1090F1DD80A2303FB0A13D4
:108CD000A3F1300A0246F0E746F00106D1E746F07C
:108CE0000206CEE746F00406CBE711F8013CA3F1FB
:108CF00030000928DBD80A2202FB0434303C0A4643
:108D0000CBE74FF0000A12F8011B01F0FB006828C6
:108D10009046F8D0782909D86F290CD8632962D0F9
:108D200022D8252963D0582900F0888098F800308F
:108D3000002B95D197E770390829F7D801A353F88C
:108D400021F000BFBF8E02002D8D02002D8D02008C
:108D50004D8E02002D8D02002B8E02002D8D020003
:108D60002D8D02003D8E0200642901D06929DDD1DC
:108D70003A68D2F80090111D89EAE9723960A2EBD5
:108D8000E9724FF0010B092A35DCD34538BFD346D1
:108D90002CB1B9F1000F01DB720700D5013CB3071C
:108DA00002D5BAF1000F03D0F00701D44CBB002468
:108DB000B9F1000F2DDAC9F100092D212846FFF77E
:108DC000D6FE06F00302022A04D1BAF1000F01D147
:108DD0001CBB0024CDE9004653460A2249462846DA
:108DE000FFF7DCFEA2E73B681A1D19783A602846B7
:108DF000FFF7BDFE9AE70A230BF1010BB2FBF3F27A
:108E0000C1E7A345D4D220212846013CFFF7AFFE9D
:108E1000CCE77107D5D52B21D0E7A345DAD2302195
:108E20002846013CFFF7A3FED2E73968CDE90046AA
:108E30000A1D3A6053460A220968D0E739680A1DBC
:108E40003A60CDE9004653461022F5E73B681A1D0B
:108E50003A6016F00106D3F8009028D1B9F1000F5E
:108E600003D0484604F029F80646B44200D904BBB2
:108E700009F1FF3919F8011F00293FF457AF2846BF
:108E8000FFF775FEF6E728460136FFF770FE19F882
:108E900006100029F7D1A642BFF448AF002C3FF4DA
:108EA00045AF20212846013CFFF761FEF3E700268D
:108EB000EDE720212846013CFFF759FED5E73B6846
:108EC0001A1D3A60302128461C68FFF750FE7821B1
:108ED0002846FFF74CFE00220823CDE90032214648
:108EE00010227CE703B0BDE8F08F00BF2DE9F84FFA
:108EF000B0F806A04579D2F800B09DF828900AFB9A
:108F000005F5043D88460BEB0301A94203F1040477
:108F100088BFA5EB030BB4FBFAF607460AFB164421
:108F2000C2F800B04EB9AAEB04055D4528BF5D4606
:108F3000BBF1000F04D1BDE8F88F3F68013EF1E7B7
:108F4000043408EB06003C442A46B9F1000F0DD06A
:108F50002146ABEB050B03F032FFDA452E443F68A8
:108F600055464FF0000428BF5D46E1E70146204624
:108F7000EFE7FFF78EBDF8B546790146721E05464C
:108F8000002393422D6803D30024A64202D8F8BDE3
:108F90000133F6E70F682846FFF7B6FD013439467E
:108FA000F3E72DE9F843068ACD1C0746FFF788FD55
:108FB000043E35440446B5FBF6F5F0B14FF480733A
:108FC000EDB28380C680013D076081464FF0000806
:108FD000A84512D23846FFF773FD064648B16379BB
:108FE0000133637108F10108C9F800000760814688
:108FF000EEE72046FFF7BFFF34462046BDE8F88382
:1090000001210430FFF727BD10B5012104460430CB
:10901000FFF72DFD10F0FF0F04D12046BDE81040F2
:10902000FFF7A9BF10BD1FB503920022009203AA4B
:10903000FFF75CFF05B05DF804FB1FB5039201224A
:10904000009203AAFFF752FF05B05DF804FB41DF71
:1090500070470000064B10B500241C70054B1C60C7
:10906000BFF35F8F0449054800F039F8204610BD72
:10907000483200204C32002030D80200403200201C
:1090800007B500230DF107008DF80730FFF798FAB8
:10909000F1EE103A23F09F03E1EE103ABFF35F8F39
:1090A000094B4022C3F884219DF80700FFF7ACFA72
:1090B00003F0CEFB20B1FFF7CAFF03B05DF804FB5D
:1090C00020BF40BF20BFF8E700E100E08368002236
:1090D0005A60C3E904229A60DA601A6070470B682C
:1090E0004A684360934208BF0023016008BF4360A1
:1090F0007047436843B10268916852680B449342D9
:10910000436004BF00234360704770B5446806465F
:109110000D46206818B1B3682946984718B92368E6
:109120002B60256070BD2468F3E74368186808B1B8
:1091300002681A6070474368186870474368186887
:1091400000B97047884203D102681A600120704755
:1091500003460068F4E7000010B50D49A1F59472CC
:10916000914201D800200FE08C1AE30F03EBE403D7
:109170005B1002EBC30452F83330834205D802D2AD
:1091800004F10802ECE7606810BD2146E8E700BF83
:109190003CDD020008B5FFF7DFFF024B002808BFE7
:1091A000184608BDFFDB020010B50446C0B2FFF749
:1091B000DFF9204610BD00000A4B1B685A1C05BF92
:1091C000094B0A4A0A4A10680ABF1B781068C0F3A4
:1091D0000310082B04D103288CBF00200120704706
:1091E0000020704730010010E00F00F0E80F00F0A1
:1091F00034010010064B1B68082B06D1054B1B6879
:10920000032B02D8044AD05C70470020704700BF8F
:1092100030010010340100103CDD020008B5FFF7FA
:10922000CBFF40B14FF080430022C3F80C21C3F8BC
:109230001021C3F83825FFF7BFFF002846D04FF0B4
:1092400080525E4BD2F80414C3F82015D2F80814EB
:10925000C3F82415D2F80C14C3F82815D2F810144A
:10926000C3F82C15D2F81414C3F83015D2F818141A
:10927000C3F83415D2F81C14C3F84015D2F82014E2
:10928000C3F84415D2F82414C3F84815D2F82814AA
:10929000C3F84C15D2F82C14C3F85015D2F830147A
:1092A000C3F85415D2F83414C3F86015D2F8381442
:1092B000C3F86415D2F83C14C3F86815D2F840140A
:1092C000C3F86C15D2F84424C3F87025FFF792FF59
:1092D00010B13B4B3B4A1A60FFF78CFF18B13A4B79
:1092E000FB22C3F81825FFF785FF48B13749384BF3
:1092F0000A681B6822F00F0203F00F0313430B6090
:10930000FFF778FF18B1334B4FF400721A60FFF784
:1093100053FF48B14FF08043D3F80024D20744BF35
:109320006FF00102C3F800242B4AD2F8883043F4CE
:109330007003C2F88830BFF34F8FBFF36F8F4FF0C9
:109340001023D3F80022002A03DBD3F80432002BC9
:109350002FDA224B0122C3F80425D3F80024002A77
:10936000FBD04FF010221221C2F80012D3F80024D3
:10937000002AFBD04FF010231222C3F80422174B0F
:109380001A46D3F800140029FBD00021C3F80415B5
:10939000D2F80034002BFBD0BFF34F8F0E49104B97
:1093A000CA6802F4E0621343CB60BFF34F8F00BF83
:1093B000FDE70C4B0C4A1A6008BD00BF00C000401E
:1093C0008C5600404881030000F00040E40E00404D
:1093D000580200104096024000ED00E000E001401D
:1093E0000400FA050C2B00200090D003074B1B5CF7
:1093F0001F2B8ABF064A4FF0A04203F01F03D2F88A
:109400000405D840C04300F00100704744DD02006D
:1094100000030050074B1B5C1F2B86BF064903F05F
:109420001F034FF0A041012202FA03F3C1F80C35EB
:10943000704700BF44DD020000030050074B1B5C77
:109440001F2B86BF064903F01F034FF0A0410122E6
:1094500002FA03F3C1F80835704700BF44DD02008B
:109460000003005008B50020FFF7E8FF0120FFF7D8
:10947000E5FF0220FFF7E2FFBDE808400320FFF709
:10948000DDBF08B50020FFF7C5FF0120FFF7C2FFD1
:109490000220FFF7BFFFBDE808400320FFF7BABF77
:1094A0000A4B185C1F288ABF094B4FF0A04300F0FD
:1094B0001F00D3F804250121814021EA02000A405F
:1094C000C3F80805C3F80C25704700BF44DD02004F
:1094D00000030050074B1B5C1F2B8ABF064A4FF04E
:1094E000A04203F01F03D2F81005D840C04300F09B
:1094F0000100704740DD0200000300500B2809D036
:109500000C2809D0182809D019280CBF03204FF0C7
:10951000FF307047002070470120704702207047DD
:10952000014B185C704700BF40DD0200C20710B558
:1095300004460CD54FF0A0430322C3F83427C3F8E8
:109540003827C3F83C27C3F84027FFF78BFFA30752
:109550000AD54FF0A0430C22C3F82C27C3F83027BC
:10956000C3F86027C3F8642710BD000038B5074C66
:10957000051E04F1080318BF1C4623682BB11A68A6
:1095800022605B6828469847F7E738BD58320020CC
:1095900020B9054B01225A70FFF7E8BF012802D11C
:1095A000014A9070F8E770475032002020B9034B11
:1095B00001225A70FFF7DABF704700BF5032002017
:1095C00038B50E4C2378B3B90D486360A3602361AE
:1095D000E36000F0E5F8054603F03AF908B900F059
:1095E000EBF801232370074BD3F800340BB10123B0
:1095F000A370284638BD8525F5E700BF503200200E
:10960000919502000000014037B50D4C00230DF18B
:1096100007008DF80730FEF7D3FFE368013BE360F6
:10962000E36833B9074BD3F8005415B900F0D6F806
:10963000A5709DF80700FEF7E7FF03B030BD00BF3F
:109640005032002000000140012813B50CD003283F
:1096500020D038B9124B0122C3F88020BFF34F8FBE
:10966000BFF36F8F02B010BD0E4C00230DF1070049
:109670008DF80730FEF7A4FF23780BB9FFF7A0FFA2
:10968000E3689DF807000133E3600123A370FEF750
:10969000BBFFE7E700F090F8FFF7B6FFE2E700BF97
:1096A00000E100E0503200201FB503788DF8003053
:1096B0004368019383688DF80830C368054A0393B3
:1096C000054B684653F8213052F82110984705B0F1
:1096D0005DF804FB643200206C3200201FB5037873
:1096E0008DF800304368019383688DF80830C368B3
:1096F000054A0393054B684653F8213052F8211070
:10970000984705B05DF804FB643200206C320020FD
:10971000F0B5194B90F800C0DFF86CE043F82C204E
:10972000164B16460A6943F82C204B7F0EF80C3076
:109730000C4607460FCC89B06D460FC594E80F0064
:1097400085E80F001EF80C30CDF810C04BB1002E8C
:109750000B4A694608BF3246381D00F0F5FD09B0D6
:10976000F0BD002E074A694608BF324607F10C00DB
:1097700000F0AAFBF3E700BF6C3200206432002047
:10978000A9960200DD9602007432002000F18040AC
:10979000002382B0036003680193019B02B070470D
:1097A000044A137923B9012110609180184670474B
:1097B0008520704778320020074B1A68D20704D4FE
:1097C000C02283F8002301221A604FF08043012257
:1097D000C3F81825704700BF00E100E04FF0804259
:1097E00008B50223C2F808334FF48270FFF7CEFFAA
:1097F000034B01211960D2F81834DB03FBD408BDF8
:109800000C000040124B1B6810B573B14FF4807010
:10981000FFF7BCFF4FF080430122C3F808230D4B34
:10982000587910B95A711B6898470B4B1B6873B174
:109830004FF48270FFF7AAFF4FF080430222C3F873
:109840000823044BBDE810401B680120184710BDD9
:1098500000010040783200200401004000F1804007
:1098600000F5C040002382B0036003680193019BB0
:1098700002B0704703681F2B83BF03F01F03036010
:1098800001484FF0A04070470003005007B5019019
:1098900001A8FFF7EFFF019B00EB8300D0F8003732
:1098A00023F44033C0F80037D0F8003743EA0141D1
:1098B000C0F8001703B05DF804FB0000054B4FF043
:1098C000FF32072843F8202084BFC01880F85820B2
:1098D000704700BF8032002038B51E4C94F86A30C3
:1098E000ABBB4FF6FF71FF205A09012A14BF4FF09E
:1098F000FF320A4603F01F05EA40D20748BFE218CC
:1099000003F1010348BF82F83000302BECD1002175
:10991000C8B2FFF7D3FF01310C29F9D1062200218B
:109920000D4803F075FA0D4BC02283F80623402240
:109930001A604FF4BE70FFF791FF094B4FF00042E1
:10994000C3F80423012384F86A30002038BD0820BE
:10995000FCE700BF80320020E432002000E100E09C
:1099600000600040034B93F86A00003818BF0120E4
:10997000704700BF80320020F7B53B4E33180546D4
:1099800093F93030002B6CDA8B78C3F34003002B53
:109990000BBF082400240C200820844202D104209C
:1099A00003B0F0BD56F82470013743D1701946F862
:1099B000242080F8304013B9331983F858508B783D
:1099C0005A0717D4D80737D501A80195FFF752FFDA
:1099D000019B00EB8300D0F8003723F00203C0F8AE
:1099E00000372248EA0805F007070123BB40875CDF
:1099F0003B4383548B780A7813F0020328D0A400E9
:109A000004F1804404F5C0442D02D4F8103523F449
:109A10004F3323F44073C4F810351204D4F81035D2
:109A200005F47C5502F4403215431D43C4F810552B
:109A30000020B5E70134B0E701A84A780195FFF7A7
:109A400019FF019B03F5E073920040F82320C8E75B
:109A5000083C344494F8605045EA821284F860204F
:109A6000E6E708209CE700BF80320020E4320020B7
:109A700073B5224C2618054696F93020072A1ADDC0
:109A8000224492F858309B09032B0FD1019001A872
:109A9000FFF7F0FE019BD0F81015D94001F001014D
:109AA00002312846FFF7F2FE02B070BD012B0CBF59
:109AB00002210321F5E7D3B2072BF5D8930003F178
:109AC000804303F5C043D3F8100540F00100C3F80C
:109AD000100502F14000800080B2FFF7BFFE0029B0
:109AE000E2D096F9303054F82330002BDCD001233B
:109AF00003FA02F2024BC3F80423D5E780320020B8
:109B00000060004007B5019001A8FFF7B3FE019B7C
:109B1000D0F81005D84000F0010003B05DF804FB58
:109B20002DE9FF470024CDE90244584D4FF48072DF
:109B3000012102F1804303F5C04390B21B68012B61
:109B400006D1D5F804330B4202D0FFF787FE0C4351
:109B50000432B2F5907F4FEA4101EAD14C4B1B68C9
:109B6000012B11D14FF4BE70FFF778FE4FF0A043E8
:109B700044F00044D3F820250292C3F82025D3F8FE
:109B800020280392C3F8202814F0FF0F1AD0414F69
:109B900000250126344210D0AB0003F1804303F5C9
:109BA000C043D3F81005D3F8101557F8253023B16A
:109BB000C1F30141C0F3052098470135082D4FEA54
:109BC0004606E7D1002C59DA324D334C334E4FF074
:109BD0000008012716F9013B5A1C3CD0C3F3C2010F
:109BE00004A801445FFA83F911F8081C03F03F024E
:109BF00003F0070307FA03F319422CD001A80192DE
:109C0000FFF738FE019B03F5E07350F82330C3F3F0
:109C1000014ABAF1020F10460CBF03210221FFF7DF
:109C200035FE01A80192FFF725FE019B07FA03F319
:109C3000C0F82035AB1893F9303055F8233053B1C4
:109C40004FEA9911032904D0BAF1020F19D1012961
:109C500001D11046984708F10108B8F1040FB9D1B5
:109C60004FF0A043D3F820250292C3F82025D4F862
:109C700020350393C4F820351343A7D104B0BDE8C1
:109C8000F087BAF1030FE6D10229E1E70060004056
:109C90007C6100408032002000030050E032002050
:109CA000014B1B68184700BFEC3200200E4B984256
:109CB00037B50C4602D0002003B030BD00230DF1B3
:109CC00007008DF80730FEF77BFC084B1D7915B9AE
:109CD00001221C601A719DF80700FEF795FC002D0B
:109CE000E9D01120E8E700BF00200040EC3200205E
:109CF0000023435082B043580193019B02B0704748
:109D00000A4610B54FF48E71FFF7F2FF136A91689F
:109D1000C95C136A01331362C0F81C1510BD0246FA
:109D200008B500684FF49271FFF7E2FF4FF48471B9
:109D30001068FFF7DDFF136801221A6008BD8B6908
:109D40000A4610B54FF4847123B9FFF7D1FFD0F85C
:109D5000183510BDFFF7CCFF536AD168D0F818054D
:109D6000C854536A01335362F3E700001FB501235F
:109D70008DF80030044BCDE90110D3E9001268469C
:109D8000904705B05DF804FBF432002030B54C4834
:109D9000D0F8043313F4007F85B005464DD0D0F8D9
:109DA0002431002B49D04FF49271FFF7A1FF4FF4FB
:109DB0000173C0F80833434B93F829200AB90122F4
:109DC00042603F4902228DF80020D1F88024C1F87A
:109DD000802403929A690292DA6801920022C3E910
:109DE00006226846D3E9001290473548D0F81C3166
:109DF0005BB134494A690B6A9A420A464AD991F8DA
:109E00002830002B46D1FFF77BFF2D48D0F8443196
:109E10008BB14FF4A271FFF76BFF2A4B93F8292007
:109E20000AB1012202609A692AB10022586AD968EF
:109E30009A61FFF79BFF05B030BDD5F804335B078F
:109E4000D3D5D5F80831002BCFD01E4C1C48214665
:109E5000FFF775FF636AA2699A422346C5D1E2699A
:109E6000E1684AB12369E3600023606AA261E361AB
:109E70006362FFF77BFFB8E794F829200AB9012253
:109E80006A600F4A4FF40170C2F808030022586A52
:109E90009A61EEE70A484FF48E71FFF729FF536984
:109EA000002BB2D051690291002391688DF80030E7
:109EB000019153616846D2E900139847A5E700BFB6
:109EC00000200040F43200202DE9F843614B057971
:109ED00091462C2202FB0532064692F82A200C46B7
:109EE0009846002A40F0B1805B490068FFF7DEFE2B
:109EF0000746002840F0AB8021684A1C10D01F297B
:109F000087BF564A01F01F030B464FF0A0420120C5
:109F1000984003F5E073C2F80805032042F82300D7
:109F20006068431C0DD01F288BBF00F01F03034641
:109F30004A4A4FF0A04203F5E0734FF0000C42F89C
:109F400023C03368A269C3F8242594F814C0627D45
:109F5000BCF1010F4CEA0202C3F86C25C3F81405EA
:109F6000C3F80C152BD1A168481C0DD01F298BBF3D
:109F700001F01F020A4639484FF0A04002F5E07296
:109F80004FF0000C40F822C0E068421C13D01F289C
:109F900087BF324A00F01F0C84464FF0A0424FF0BA
:109FA000010E0EFA0CFE0CF5E07CC2F808E54FF04D
:109FB000030E42F82CE0C3F80805C3F810152C2353
:109FC0006B4308EB0302C2F80490226948F80320AF
:109FD000B9F1000F21D03068247F4FF48E71FFF764
:109FE00087FE4FF4A2713068FFF782FE32681C4B87
:109FF000C2F80433110B42F307326301002ADBB2CB
:10A000001EDB1848841884F800330123520901F03C
:10A010001F0103FA01F140F8221033680422C3F84B
:10A0200000252C2303FB05830022C3E9062283F8C5
:10A0300029205A61012283F82A203846BDE8F88396
:10A04000094A01F00F015354E7E70827F5E7112704
:10A05000F3E700BFF43200208D9D020000030050A2
:10A060008000020000E100E014ED00E02DE9F0477F
:10A07000204F90F804904FF02C0808FB0974054617
:10A080006669002E34D162610068A16026624FF4D7
:10A090008E7184F82860FFF72BFE28680123836007
:10A0A0002146FFF72DFE6368A0468BB92868D4F8D7
:10A0B00014A0236A9A4511D82A68D2F81C31002BC3
:10A0C000FBD00123D3602C2303FB097300225A61C8
:10A0D0003046BDE8F08794F828303BB9D0F81C3101
:10A0E000002BF8D04146FFF70BFEE2E70F26EAE728
:10A0F0001126EDE7F43200200379044A2C2101FBFC
:10A1000003235869003818BF01207047F43200203B
:10A110002DE9F843394F05792C2303FB05730646D7
:10A120005C6824B103684FF40170C3F808032C2362
:10A1300003FB0573986950B1D86900283ED024B15B
:10A1400033684FF40172C3F80423112433E09A6199
:10A15000D9605862D8612C2303FB057393F829302A
:10A160001BB910B93046FFF7DAFD4FF02C0909FB97
:10A1700005783068D8F80430002B34D14FF4A27140
:10A18000C146FFF7B5FD3068D0F82431D0F808217A
:10A19000D0F84441B2B90CB9002BF4D02C2202FB08
:10A1A00005750022AA6123BB2CBB95F829103368E2
:10A1B0000122B1B11A602046BDE8F8831961DA6165
:10A1C0000120C8E7002BE9D1002CE7D14946FFF771
:10A1D000B6FDD8F82430D8F818209A42D3D82346B0
:10A1E000DCE75A60E7E74FF40173C0F8043300245A
:10A1F000E1E70324DFE70F24DDE700BFF4320020AE
:10A200000023435082B043580193019B02B0704732
:10A210001FB501238DF80030044BCDE90110D3E9BF
:10A2200000126846904705B05DF804FB203300201B
:10A230007FB5434AD2F82461002E60D010464FF417
:10A240009271FFF7DDFF02238DF80030D2F88034E1
:10A25000C2F880340393D2F83C350293394BDA6864
:10A2600001920022C3E906226846D3E90012904712
:10A270003348D0F8443173B14FF4A271FFF7C0FFF7
:10A28000304B9A693AB10022C3E90622D968D0F866
:10A290003C05FFF7BDFF2A48D0F82031ABB14FF4A1
:10A2A0009071FFF7ADFF0123C360264B5A6962B17D
:10A2B000D0F84C150291002299688DF80020019188
:10A2C0005A616846D3E9001290471D48D0F85831CA
:10A2D0009BB14FF4AC71FFF793FF1A4B5A6962B10F
:10A2E000D0F84C150291002299688DF80020019158
:10A2F0005A616846D3E90012904704B070BDD2F8A5
:10A300001031002BB4D04FF488711046FFF778FF5E
:10A310000C4BD2F83C0599698842A9D1DC69D9680F
:10A3200064B1D2F8005225F02005C2F800521A6933
:10A330009C61DA60DE61FFF76BFF99E79C61FAE7E9
:10A3400000200040203300202DE9F843674B0679B8
:10A350009146242202FB0632044692F820200D4644
:10A360009846002A40F0BE8061490068FFF79EFCD5
:10A370000746002840F0B8802868421C10D01F28EB
:10A3800087BF5C4A00F01F0303464FF0A042012143
:10A39000994003F5E073C2F80815032142F8231031
:10A3A00069684B1C0DD01F298BBF01F01F030B46A2
:10A3B000504A4FF0A04203F5E0734FF0000C42F812
:10A3C00023C02368AA69C3F8242595F814C06A7DC0
:10A3D000BCF1010F4CEA0202C3F86C25C3F80C056E
:10A3E000C3F814152BD1A968481C0DD01F298BBFA9
:10A3F00001F01F020A463F484FF0A04002F5E0720C
:10A400004FF0000C40F822C0E868421C13D01F280F
:10A4100087BF384A00F01F0C84464FF0A0424FF02F
:10A42000010E0EFA0CFE0CF5E07CC2F808E54FF0C8
:10A43000030E42F82CE0C3F80805C3F810152423D6
:10A44000734308EB0302C2F804902A6948F803201A
:10A45000B9F1000F30D020682A7F4FF48871FFF7E0
:10A46000CFFE20684FF49071FFF7CAFE20684FF4CA
:10A470009271FFF7C5FE20684FF4A271FFF7C0FE8E
:10A480004FF4AC712068FFF7BBFE23681A49C3F88C
:10A490000413190B43F307335201002BD2B21CDB18
:10A4A0001648C51885F8002301225B0901F01F0139
:10A4B00002FA01F140F8231023680822C3F80025AE
:10A4C000242303FB06830022C3E906225A610122EA
:10A4D00083F820203846BDE8F883094B01F00F01CE
:10A4E0005A54E9E70827F5E71127F3E7203300205E
:10A4F00031A20200000300501003420000E100E01E
:10A5000014ED00E001F06043B3F1005F2DE9F0418C
:10A51000064638D11E4B0779242505FB073598469A
:10A520006C69002C31D16A610068A9604FF49071A8
:10A53000FFF766FE4FF4AC713068FFF761FE3368D9
:10A540006A69A968C3F84415C3F8482501229A60CE
:10A550006A68AAB9D3F82021D3F858411AB9002C57
:10A56000F8D00F2407E0002CFBD10122DA60D3F8E9
:10A570005821002AFBD0242303FB078700237B619B
:10A580002046BDE8F0811024FAE71124F8E700BF67
:10A59000203300200379044A242101FB0323586956
:10A5A000003818BF0120704720330020F8B501F0B3
:10A5B0006043B3F1005F04460F465ED10379304D2E
:10A5C000242101FB0351496821B100684FF404764E
:10A5D000C0F80863242000FB03539E6956B1D86974
:10A5E000002839D021B123684FF40472C3F8042342
:10A5F000112030E09A61DF60DE6120684FF48871DD
:10A60000FFF7FEFD20684FF4A271FFF7F9FD236804
:10A61000C3F83475C3F8382516BB01221A602179B6
:10A62000242202FB015252680ABBD3F81041D3F82E
:10A630004421D3F82401144302D10028F5D0224646
:10A64000242303FB01550023984218BF03209A429C
:10A65000AB6118BF0F20F8BD1F61DA610126CCE79E
:10A66000D3F8002242F02002C3F80022D7E74FF4CB
:10A670000472C3F804230020EDE71020EBE700BFCD
:10A68000203300200220FEF70BBF00002DE9F04729
:10A6900080460D46FEF732FF0328044610D8012DF0
:10A6A00010D0022D30D05DB91A48FDF7A4FD1A4B29
:10A6B00004EB440213449E78184B1B5DB34219D03F
:10A6C000BDE8F087144D00EB4002A918AE5C4A7853
:10A6D000470052B1DFF84C900E484A464FF4804193
:10A6E000FDF771FD08B989F800803B192B449A7871
:10A6F0000A4B1A55002EE3D0094B1B68002BDFD004
:10A700003046BDE8F047184700EB400402480444D7
:10A710006678EFE768330020A8330020C1330020BB
:10A72000BC3300204433002000780221FFF7AEBF85
:10A7300008B5094B1B7853B10020FEF77FFE0120BE
:10A74000FEF77CFEBDE808400320FEF777BEBDE8BB
:10A750000840FEF787BE00BF45330020F8B57B4CAC
:10A76000237805461BB100232370FFF7E1FF172D67
:10A7700000F28880DFE805F00C17174354657680F7
:10A78000888D888D959A9A9A9A9AC4C9D1D9E4E409
:10A79000FFF7CEFF6E48FDF72EFD6E4B00220446FC
:10A7A0001A702046F8BD0020FEF720FEF8B1002008
:10A7B000FEF744FE022D0CBF4FF4E1614FF47A61C5
:10A7C000644B1D704FF400404FF47A740025E0FB99
:10A7D00001454FF4FA6200232046294602F0C4F9ED
:10A7E00000220146BDE8F8405948FDF7ECBCFEF7F1
:10A7F00011FE022D0CBFC8214FF4C871E0E7002004
:10A80000FEF7F4FD40B10020FEF718FE4FF448714A
:10A81000504B03221A70D5E7FEF7FCFDC821F7E77D
:10A820000020FEF7E3FD38B10020FEF707FE4FF4ED
:10A830007A61484B0422EDE7FEF7ECFD4FF4C87156
:10A84000F7E70020FEF7D2FD48B10020FEF7F6FD45
:10A85000404B05221A7040F6CD410022C2E7FEF7B8
:10A86000D9FDF5E70020FEF71BFE3A4B06221A70D1
:10A87000002240F26661B5E70020FEF7CBFD354BC4
:10A8800007221A7000248CE701202070FEF708FED2
:10A89000EEE701202070FEF703FE00224FF4005186
:10A8A000A0E7FEF7EEFD2B4B0C22EAE72A482B4EE1
:10A8B000FDF7A1FCD5F1110504461CD0D8B9012D36
:10A8C00013D0C8235D434FF400474FF47A70002142
:10A8D0004FF4FA620023C7FB050102F045F9224656
:10A8E00001461D48FDF76FFC04460220FEF792FD6D
:10A8F0000123337055E70220FEF7A0FD0023F8E79F
:10A90000FFF716FF134B1222BBE7FFF711FF0020E2
:10A91000FEF780FD0F4B1322B3E7FFF709FF01207D
:10A92000FEF778FD0B4B1422ABE7FFF701FF002089
:10A93000FEF770FD0120FEF76DFD064B1522A0E726
:10A94000FEF79FFD034B1D709CE700BFB83300204E
:10A9500088330020C03300204833002045330020D6
:10A96000044B1B68DB0703D5034B1878FFF7F6BED3
:10A97000704700BFB4330020C0330020002910B559
:10A9800014BF03240024FEF7CBFD1F288ABF0A4B07
:10A990004FF0A04300F01F0003EB8000D0F8002729
:10A9A00022F44032C0F80027D0F8003743EA0443CD
:10A9B000C0F80037002010BD00030050032801D864
:10A9C000FEF788BD00207047044B1B6813F001039D
:10A9D00001D0FFF7C3BE1846704700BFB433002054
:10A9E00038B51C4B18601C4B10F00204054619606A
:10A9F0001AD01A4B1A480E221A700F22DA7010223F
:10AA00009A7111225A72042140F23332FDF73EFA54
:10AA1000044648B9FDF790FA044628B90146114AA0
:10AA20001148FDF7C5FB0446EB0711D50120FEF7E1
:10AA30007DFD6CB921460D4A0D48FDF7B9FB044672
:10AA400030B9BDE838400B4A0B480121FDF7B0BBD7
:10AA5000204638BDB4330020BC330020A83300208A
:10AA600068DD020029A702008CDD020061A9020056
:10AA700090DD020085A6020088DD0200032811D8BF
:10AA8000012A0AD101290FD100F10E02D2B20D4BD9
:10AA900000EB40001A54002070470129F7D002292A
:10AAA00004D049B1072070470022F8E7054B00EBBE
:10AAB000400018444270EEE7024B00EB400018449F
:10AAC0008270E8E7A8330020032802D80121FFF7AD
:10AAD00055BF0620704708B5012202210020FFF76C
:10AAE000CDFF08B1072810D1072202210120FFF76E
:10AAF000C5FF08B1072808D100210A220846FFF740
:10AB0000BDFF10B1072808BF002008BD0388102B27
:10AB100010B502D0112B1ED010BD1A4C2168B1B94E
:10AB200001220846FFF7AAFF08B1072824D107220F
:10AB300002210120FFF7A2FF08B107281CD104223F
:10AB400002210020FFF79AFF08B1072814D12368DB
:10AB500001332360E0E70B4A1368013B1360002BCD
:10AB6000DAD1FFF7B8FF0028D6D0074B1B68002BBF
:10AB7000D2D0BDE810401847034B1B68002BE6D02D
:10AB80009847E4E7CC330020C833002008B5002004
:10AB9000FFF79AFF08B1062806D10120FFF794FFBE
:10ABA00010B1062808BF002008BD00000D4B10B5ED
:10ABB00018600C4629B10120FFF700FF40B10223C5
:10ABC0002370094B1B6853B9BDE81040FFF783BFE2
:10ABD000FFF7F4FE08B10B23F2E72070F1E7002045
:10ABE00010BD00BFC8330020CC33002076DF704793
:10ABF0007ADF70477CDF70477FDF70478FDF7047F9
:10AC0000B1DF704733DF7047FDF7ACB908B50020FE
:10AC1000FFF7DAFE08B1FDF7A5F9FFF7B7FF08B1B6
:10AC2000FDF7A0F9FFF7EEFF18B1BDE80840FDF70A
:10AC300099B908BD0388212B13B504463DD007D828
:10AC4000112B2BD0132B40D0102B0CD002B010BDE9
:10AC5000522B42D0562B01D03B2BF7D1A088132189
:10AC6000FFF7C4FF15E0214B21482249C01AC00854
:10AC7000000440F00300FCF79BFE0720FFF7A4FE52
:10AC800008B1FDF76FF91C4BA1881C48198001F031
:10AC9000A9FB0028DAD0FDF765F9D7E7134B144874
:10ACA0001749C01AC008000440F00300FCF780FEFA
:10ACB000114B4FF6FF721A80C8E7002301A9808864
:10ACC000ADF80430FFF79AFFE3E70B4800231A467C
:10ACD00085210088FFF790FFDBE7074800231A462D
:10ACE00019460088FFF78CFFD3E700BFC8D50200E4
:10ACF000F0D5020094DD0200162B0020143900204C
:10AD00009EDD02000D4B4A881B889A4214D10A88A6
:10AD100040F677239A420FD18B88094A09480A499D
:10AD2000033B9BB21380094A801AC00800041A46EC
:10AD300040F00300FCF749BE704700BF162B00200F
:10AD4000142B0020F0D50200ABDD0200C8D50200B4
:10AD500008B503784BB9054B3B211888FFF746FF30
:10AD600018B1BDE80840FDF7FDB808BD162B00205E
:10AD7000072808B513D00A280DD0042819D10D4B87
:10AD800013211888FFF732FF30F0080311D0BDE817
:10AD90000840FDF7E7B8BDE80840FFF737BF054BAF
:10ADA0001A884FF6FF739A4203D1034800F0CBFE96
:10ADB000EAE708BD162B0020C834002008B548B1CA
:10ADC00003280BD10220FFF7FFFD38B1BDE8084092
:10ADD000FDF7C8B8BDE80840FFF718BF08BD000080
:10ADE000F7B50378012B33D0022B31D073BB1A4C4B
:10ADF0001A4D20782844FDF7A5FB23780133DBB2F8
:10AE00001D44237015F8012C0A2A05D00D2A03D001
:10AE1000134A12889A4219D8012B15D9114D0F4E99
:10AE2000114F2378ADF806300DF106022B8831461C
:10AE3000384601F051FC082806D01328F1D0052827
:10AE400002D008B1FDF78EF80023237003B0F0BDE7
:10AE50004068FDF787F8F9E7C4340020D0330020BC
:10AE6000142B0020162B0020182B00202DE9F04178
:10AE70000578064645BB154C154BDFF85880E41A9B
:10AE8000E408240444F00104B28A95420AD33369E9
:10AE9000134413F8013C0D2B16D10A20FDF768FB73
:10AEA0001128F9E73369585DFDF762FB074648B1A1
:10AEB0001128F7D0024641462046FCF77DFD384672
:10AEC000FDF750F80135DFE7BDE8F081F0D502006D
:10AED000C8D50200C7DD0200FDF744B808B508492F
:10AEE000084801F06BF908B1FDF73CF80548F72177
:10AEF00001F078F918B1BDE80840FDF733B808BD96
:10AF000005AD0200FC38002000B5734D0FCDB1B087
:10AF100005AC0FC495E80300704B714A01934FF4E0
:10AF2000807384E80300CDE9032302936D4A07236D
:10AF300001A905A8FDF7AEFA08B1FDF713F84FF423
:10AF400080410020FCF7A0FB08B1FDF70BF8FCF7EF
:10AF5000DBFAFDF7FBF808B1FDF704F862490320BE
:10AF6000FFF73EFD08B1FCF7FDFF05A90020FFF744
:10AF70001DFE08B1FCF7F6FFFEF76CF808B1FCF710
:10AF8000F1FF01F027FC08B1FCF7ECFF002305A955
:10AF90000120059301F0ACFC08B1FCF7E3FF05A824
:10AFA00001F076FD08B1FCF7DDFF11234F488DF865
:10AFB000043001F082FF4D4982B201A8FFF71AFE6A
:10AFC00008B1FCF7CFFF0021082205A801F020FFFF
:10AFD00047494FF0C87305A8CDE90513FFF708FEF0
:10AFE00008B1FCF7BFFFFFF779FF424B42480593DA
:10AFF00005A901F0E5F908B1FCF7B4FF042200212E
:10B000000DEB020001F004FF3C4B3D48019301A908
:10B0100001F0E8FA08B1FCF7A5FFAC22002105A871
:10B0200001F0F6FE02238DF814304FF4A063354A88
:10B03000ADF816300123ADF8603019928DF89030DC
:10B04000402244F25063CDE927232F482F4B2E9303
:10B0500005A900F0BAFB08B1FCF784FF2A480121DA
:10B0600000F0B0FB1C22002105A801F0D1FE002356
:10B070004FF4A032CDE90532ADF822304FF4F02282
:10B080008DF82430224B07920A930322214B8DF82E
:10B09000202005A80B9300F073FE08B1FCF762FFB7
:10B0A0001D4801F05BFE1D4B1D481E49C01AC0081B
:10B0B000000440F00300FCF77BFC1348032100F080
:10B0C000FBFB08B1FCF74EFFFCF72EFB0028FBD181
:10B0D000FDF7D6FFF8E700BF3CDE02002039002074
:10B0E000203A0020E1AD020071AD0200F2DD020065
:10B0F00010003C0009AC0200143900206DAE0200C3
:10B10000182B0020102B0020C8340020BDAD0200F9
:10B1100051AD0200D9AE0200FEDD0200C8D502002A
:10B12000F0D5020010DE02000369C1688B429DBFAA
:10B130008268D21802F1FF3203F1FF3394BF501A34
:10B14000581A70472DE9F843D0E902940546A9EB57
:10B1500004084068904520440F46144404D901F087
:10B160002EFEEC60BDE8F8834246A4EB090401F032
:10B1700026FE6868224607EB0801F0E72DE9F84350
:10B18000C5680646894617464FF000083469B3681B
:10B190007068A54228BFE418013C621B5C1BBC42DE
:10B1A00028BF3C46944228BF1446494628442246BC
:10B1B00001F005FEB3682544AB4208BF00253F1BE4
:10B1C000A044A144F560E1D14046BDE8F883000009
:10B1D00010B5114C114AA2610223C4E90433104B8B
:10B1E000E361A2644FF400730E4A0F492362E264E4
:10B1F00000231022E01DA3626362E362A36563651E
:10B20000E365226501F037FE0849204601F033FE70
:10B210002023A37110BD00BF203B002054DE02009C
:10B22000A83B0020983B00205DDE020061DE0200AA
:10B23000F8B5184C182300FB033503FB00402544E8
:10B24000C46A012C0F4616460FD0022C1AD0F4B94E
:10B250002846FFF769FF864205D832463946284618
:10B26000FFF770FF34462046F8BD2846FFF75CFF25
:10B270008642344628BF0446224639462846FFF710
:10B2800061FFF0E72846BDE8F840FFF777BF0024EC
:10B29000E9E700BF203B0020FFF79ABF6DDF704752
:10B2A00079DF70477DDF704764DF70472DE9F04F2D
:10B2B00085B000250E9CBDF83CB0B4F800A001910B
:10B2C000074690461E46A9463A884A450DDC45B1D8
:10B2D0002388013BA3EB0A039BB2FF2B3AD806F865
:10B2E0000A30002005B0BDE8F08F7A6852F82900D6
:10B2F000039000220DF10B0103A8FFF7D5FF0028F2
:10B30000F0D19DF80B20424521D12288002D14BF99
:10B310000020022002EB0801014459451ADC3DB926
:10B32000013292B2019B2280B354228801322280E2
:10B3300022880DF10B01324403A8FFF7B5FF002866
:10B34000D0D121889DF80B200A442280012509F1E3
:10B350000109B9E70C20C5E72DE9F341089FBDF8C5
:10B3600024801546CDE90078022204461E46FFF7E8
:10B370009DFF50B93346102229462046CDE9087872
:10B3800002B0BDE8F041FFF791BF02B0BDE8F08127
:10B390002DE9F04F00231788138090F82D3085B0E9
:10B3A00006460D46144653B3082F01D80C2027E15A
:10B3B00002A8FFF773FF002840F0228123880822AB
:10B3C000EA54238801339BB21B222380EA5420884D
:10B3D000013080B2208006220DF10901284401F0DD
:10B3E000EEFC23889DF8082006339BB212F0FE0283
:10B3F00018BF01222380EA54238801332380B378C5
:10B40000FBB123880433BB42D0D802A8FFF748FF22
:10B41000002840F0F58023880322EA542388013372
:10B420009BB219222380EA542388BDF808200133F7
:10B430009BB2E9182380EA54120A4A702388023327
:10B440002380F2789AB12388D91CB942AED8022160
:10B45000E954238801339BB201212380E9542388D6
:10B460000B449BB22380EA5423880B4423807268E8
:10B47000AAB12388D91CB94298D8022192F9002098
:10B48000E954238801339BB20A212380E95423889D
:10B4900001339BB22380EA5423880133238033890C
:10B4A000002B40F0A180338A5BB1CDE900472B46E9
:10B4B0000722032106F11000FFF74EFF002840F09D
:10B4C0009F80338B5BB1CDE900472B4615221421B9
:10B4D00006F11800FFF740FF002840F09180326A23
:10B4E000002A40F09080D6F82480B8F1000F30D0C8
:10B4F000B8F804302188981C8A1C0244BA423FF6EE
:10B5000055AFFE283FF652AF03336B542388013307
:10B510009BB2FF222380EA54238801339BB223800D
:10B52000B8F80020EA54E918120A4A70208802305C
:10B5300080B22080B8F804205AB1D8F80810002949
:10B540006BD0284401F03BFC2388B8F80420134456
:10B55000238096F82C30002B40F09A803078002819
:10B560004ED03388012B58D0228802F1020CBC4502
:10B570003FF61CAF012805D17378023313449F4274
:10B58000FFF414AF023FBF1ABFB202A905EB0C00D3
:10B59000ADF80870FFF786FE90BB3178BDF8083033
:10B5A000022900F0BA8072789A4202D3BB4240F27C
:10B5B000B280012940F0B380974293B2C0F0AF80CF
:10B5C000ADF808300821BDF80830FE2B3FF6EEAE8E
:10B5D00022880133AB542288013292B22280A954CE
:10B5E0002288134423800BE0CDE900472B46062236
:10B5F000022106F10800FFF7AFFE00283FF453AF29
:10B6000005B0BDE8F08FB4F800C00CF10603BB42F2
:10B610003FF6CCAE1188052901D80720F0E76FF47A
:10B62000486E01EB0E039BB24FF27D3E7345F4D999
:10B630005388052BF1D96FF44860181880B2704513
:10B64000EBD94FF6FF70814203D0834201D099427B
:10B65000E3D8052305F80C30238801339BB212216F
:10B660002380E954238801339BB223801188E95455
:10B67000E818090A4170238802339BB2238052885C
:10B68000EA54E918120A4A702388023323802AE711
:10B69000B36A002BC1D04FF000094FF00C0A4FF0F5
:10B6A000160B96F82C305FFA89F293427FF656AF6C
:10B6B000B16A0AFB02F201EB0208B8F80430981CE8
:10B6C000FE283FF673AE208803332B5423880133C2
:10B6D0009BB2238005F803B0238801339BB22380FB
:10B6E0008A5AEA54E918120A4A702088023080B255
:10B6F0002080B8F804205AB1D8F8081000298CD05E
:10B70000284401F05CFB2388B8F80420134423800C
:10B7100009F10109C5E7092155E7BB42FBD9ADF89D
:10B7200008704FE730B5C8B1F2B10024651C8D42F6
:10B7300006DA1588A54212D805196D789D420ED1FA
:10B74000A14211D9005D48B1013880B230B1023454
:10B75000A3B210FA84F4A14206DB138030BD055D6C
:10B7600001352C44A4B2E1E70020F7E713B51346F6
:10B770000022ADF806200DF106020446FFF7D2FFC5
:10B7800010B1BDF80630E01802B010BD72DF70478E
:10B7900073DF704774DF704738B5012204460D46E9
:10B7A000B0F81414D0F81004FFF7E0FF00B10570F2
:10B7B00004F13C0204F5826104F15400BDE8384014
:10B7C000FFF7E4BF80F830107047F8B504460F4625
:10B7D00000296DD000286BD091F87A301BB191F818
:10B7E0009830002B66D14FF0000C84F802C007F1AE
:10B7F00078060FCE251D0FC50FCE0FC596E80700A2
:10B8000085E8070084F830C0D7F8A4306363D7F820
:10B81000A830A3634FF6FF7504F58263C4F82034A3
:10B82000A4F824540722614604F2264001F0F0FAFD
:10B8300023780BB984F8545094F82430002B14BFAB
:10B84000EE231F2304F15501C4F81014A4F8143496
:10B8500004F214423846FFF79BFD40BB94F82430B5
:10B86000002B14BFEE231F2304F23121C4F8181457
:10B87000A4F81C3404F21C4207F13C00FFF788FDD9
:10B88000A8B9A369A4F848304FF480730125A4F83F
:10B89000503063692064014684F83C50636404F1CD
:10B8A0003C0204F15400FFF771FF00B92570F8BDA8
:10B8B0000E20FCE70720FAE7F8B5077804460D46A6
:10B8C000002F00F0098100F2264681700722002136
:10B8D000304601F09DFAE38813B1A378012B04D020
:10B8E000E3794BB1A378022B06D1636BA3B101229C
:10B8F00084F82D2408209847334604F22C4113F88D
:10B90000012F12B99942FAD117466B1E032B57D853
:10B91000DFE803F0050B0F1284F82D34ECE7A37970
:10B920001BB194F8243003B95FB9E3790BB1002F50
:10B9300048D1237A002B47D1637A002B0CBF002516
:10B940000425636BA570002B40D0033D012D3DD82D
:10B950006279002A3AD094F82E24002A36D184F84D
:10B960003024012284F82F240720984704F13C0555
:10B9700018220021284601F04BFAE26A0123511EE9
:10B98000994284F83C3001D9042A00D1D3B294F80A
:10B99000242084F8513042B1A36A591E012902D9EA
:10B9A000042B18BF012384F85230A178002384F8B7
:10B9B000503004291BD8DFE801F0770D22355900FB
:10B9C0000025BEE70225BCE70325BAE7002384F87B
:10B9D0002F34CBE7C4E91063C4F8203402230122DA
:10B9E00084F83C30802384F83120A4F84830A378D0
:10B9F000002B5CD1636B002B6AD1002067E002232F
:10BA0000002A84F8313014BF0723032384F83C3024
:10BA10002369A4F848300023C4F82034E36826647E
:10BA20006364E4E763696364A369A4F8483012B10E
:10BA3000062384F83C306379B3B194F82E349BB973
:10BA400094F8303483B1022384F850300421204626
:10BA5000FFF7A2FE0028CAD1052384F8313004F58F
:10BA60008263C4F82034C2E70323F6E7E369636422
:10BA7000236AA4F8483012B1062384F83C30637975
:10BA800083B194F82E346BB994F8303453B1022357
:10BA900084F8503004212046FFF77EFE0028A6D10E
:10BAA0000623DAE70423D8E784F831309FE7D4F897
:10BAB00020142A4604F15400FFF768FE38B994F8C0
:10BAC000301094F85400FFF763FE002892D0F8BDC0
:10BAD00094F83100984790E70820F8E70388112B85
:10BAE00010B50C460AD0262B1FD0102B05D1C37BD6
:10BAF000012B02D18388A1F8243410BD0022838851
:10BB000081F82E24B1F824249A42F6D10B79002B27
:10BB1000F3D101212046FFF7CFFE0028EDD0A36B23
:10BB2000002BEAD0BDE810401847037A013B012BF7
:10BB3000E3D8897805230131B1FBF3F303EB8303E9
:10BB4000C91AC9B2E6E738B5044690F85400FFF7C1
:10BB500021FE012384F82E34002384F8303484F845
:10BB6000503006212046FFF717FE054638B9A17868
:10BB70002046FFF7A1FE10B1A36B03B198472846FA
:10BB800038BD75DF704776DF70477ADF70477BDF3F
:10BB900070470000034B1A8882420CBF18460020F1
:10BBA000704700BFC43D0020024B9B6903B118479A
:10BBB000704700BFA83D002073B585B22846FFF747
:10BBC000E9FF044670B1164E027A337B9A420BD2DB
:10BBD00000F10A012846FFF7D4FFE8B1112801D08F
:10BBE000FFF7E2FF02B070BD00230372337C43B164
:10BBF0003B212846FFF7C7FF30F0080301D0FFF7CD
:10BC0000D3FF7369002BEDD000228DF80420ADF82E
:10BC1000065001A89847E5E7237A01332372E1E74C
:10BC2000A83D002037B50B46497A0F4A71B9D2E9D1
:10BC300001141D7A0246002D18BF21465868FCF7F2
:10BC4000C2FA08B1FFF7B0FF03B030BD002119728E
:10BC50005369002BF8D00122ADF806008DF80420BE
:10BC600001A89847F0E700BFA83D00204B88028854
:10BC70009A4213D842889A4210D380888A8840F228
:10BC8000F313984294BF031AC31A934206D800F2E2
:10BC9000F310904234BF002001207047002070470D
:10BCA0000388122B70B5014659D004D8102B1ED032
:10BCB000112B44D070BD502BFCD12F4BC288DB8997
:10BCC0009A42F7D1038A022BF4D186883046FFF7D7
:10BCD00061FF05460028EDD001F1120000F079F96E
:10BCE00038BB6868FCF787FA0028E3D009E0C37B1B
:10BCF000012BDFD14FF6FF70FFF74CFF054620B94F
:10BD00000420BDE87040FFF74FBF1C4A8E880680B4
:10BD1000002303721368C0F80A305368C0F80E306D
:10BD200010310A30FFF7A2FF134B6872DB89002B3A
:10BD3000C0D129463046BDE87040FFF773BF808808
:10BD4000FFF728FF04460028B4D04068FCF753FAF8
:10BD500008B1FFF729FF4FF6FF732380AAE7868813
:10BD60003046FFF717FF05460028A3D008310A30F8
:10BD7000FFF77CFF6872DCE7A83D0020D83D00207B
:10BD8000F8B5064648B305460FCD154F3C460FC4DF
:10BD900095E8070084E807003068124C3C60B0B1B9
:10BDA000FFF7F3FEC0B9326813682360536863601D
:10BDB0000D480E4A4FF6FF7303800D4B40F8043FC9
:10BDC0000021FCF7F5F9002818BF032004E0204605
:10BDD000FFF7DDFE0028EBD0F8BD0E20FCE700BF2A
:10BDE000A83D0020D83D0020C43D0020B9BB020082
:10BDF000E03D00200AB1FCF7E3BDFCF7EABD73B5F6
:10BE00000191019C06466CB100252C46294601A8EB
:10BE1000FCF7E9FD18B106EB440301349D800135C0
:10BE2000142DF3D13046346002B070BD2DE9F047D7
:10BE300003888488103B8CB005460A2B1FD8DFE8A6
:10BE400003F0063F1E1E1E1E1E1E1E604400314EC5
:10BE5000B368DB43009371686846FCF7F0FD009916
:10BE600001A8FFF7CCFF0DF108094FF00008019B76
:10BE7000984507D3132C13D90420FCF773F80CB0A2
:10BE8000BDE8F08739F802AB00270137514606EBD1
:10BE90008700FCF79EFD1E2FF7D108F10108E6E7A9
:10BEA0001D482146FCF78CFD1C482146FCF788FD07
:10BEB000EB7B022BE3D11A482146FCF781FDDEE73C
:10BEC00015482146FCF785FDD9E7027A15483F2A37
:10BED0004FEA1215214694BF00220122FFF78AFF84
:10BEE000022D94BF002201220F482146FFF782FF56
:10BEF000012D0E4894BF002201222146FFF77AFF50
:10BF0000BDE7037A002BBAD1427A0648C2F3C002D9
:10BF10002146F3E7003E0020083E0020043E0020BA
:10BF20000C3E0020183E0020143E0020103E002051
:10BF30001328014602D80248FCF755BD002070477F
:10BF4000043E002010B50446FFF7F2FF002814BF9E
:10BF50002046142010BD70B50546164608460AB99D
:10BF60000E2070BD00231360002DF9D02B68002B2C
:10BF7000F6D0EB8813F003040ED1FFF7E3FFC0B255
:10BF800014280BD02B7983420AD9EB882A6800FB4E
:10BF9000032030602046E4E70720E2E70520E0E7E1
:10BFA0000420DEE7AADF7047002301380B70042865
:10BFB00006D8DFE800F00306080A0C0011230B7016
:10BFC00070472123FBE73123F9E71223F7E7222308
:10BFD000F5E7007800F001007047F0B58B7891B07C
:10BFE000012B0C4638BF01238DF80E3005460B8817
:10BFF000ADF80C30002116466846032200F008FF19
:10C00000607C6946FFF7D0FFA07C0DF10101FFF7CE
:10C01000CBFFE27B237B217D43EAC203227C43EA00
:10C0200002139DF80220002922F0190203F01903DF
:10C0300014BF02210121134361F342031C2200219A
:10C0400009A88DF8023000F0E3FE637B13F0300F97
:10C0500015D002AF03220021384600F0D9FEE07C63
:10C060000DF10901FFF7A0FF11238DF808309DF8AD
:10C070000A300E97012262F342038DF80A30637B87
:10C080008DF824301422A37B8DF82530002104A8DC
:10C0900000F0BEFE03AB0493A388ADF81C30A36888
:10C0A000CDF814D01BB1E288ADF818200893A3692D
:10C0B000002B31D001AF03220021384600F0A8FE4A
:10C0C000A3691A88ADF82C205A88ADF82E205A683A
:10C0D0000D97187B0A923946FFF766FFA3690DF1A9
:10C0E0000501587BFFF760FFA269917A137A43EA52
:10C0F000C103D17A927B43EA01139DF80610002A0E
:10C1000003F0190321F0190114BF022201220B438D
:10C1100062F342038DF80630E36903B10C933346B2
:10C1200004AA09A92846FFF73DFF11B0F0BD90DF32
:10C130007047A5DF7047B5DF704700007FB500236B
:10C14000ADF80810ADF80A106A4602A90646039336
:10C150000093ADF80430FFF7EAFF054600B3124B39
:10C16000124CE41AE408FDF715F8240444F0010425
:10C1700003460F4932462046FBF727FCBDF8002056
:10C18000BDF8023052EA030103D00A492046FBF70A
:10C190001CFCBDF804201AB107492046FBF70CFC33
:10C1A000284604B070BD00BFC8D5020018D60200F2
:10C1B00068DE0200B2DE0200F1DE020080B14FF064
:10C1C000F7130360FB230371F723C3801723038155
:10C1D00041F6FB320023016143818281184670479A
:10C1E0000E20704730B1A1F11703E02B04D8018075
:10C1F000002070470E2070470720704713B5034694
:10C2000080880C46B8B91A88242A00F0968014D881
:10C21000112A71D0232A00F09E80102A3BD0A37AE5
:10C220004BB1E1880020FFF784FF002840F099809F
:10C230004FF48073638102B010BD3A2A65D0552A4D
:10C24000EDD1DB88C988A072172B38BF17238B422A
:10C2500028BF0B462381FFF76EFF60B1FCF79AFF02
:10C26000484B4949024649481B1ADB081B0443F066
:10C270000100FBF7A1FBE37A002BD0D12369002B4F
:10C28000CDD040F6772200922289ADF8042069468D
:10C2900020469847C3E7DB7B0A790A73012B13D04A
:10C2A000022B14D0E18823898B4205D20020FFF7AE
:10C2B00040FF70B90123E372217B637B8B42AED2D6
:10C2C0000020FFF73BFFAAE70B88E380EAE74B88F3
:10C2D000FBE7112802D10123A372EDE7FCF75AFF17
:10C2E000284B2B49024629481B1ADB081B0443F044
:10C2F0000100FBF761FBDFE7F723CB8017230B81FE
:10C3000041F6FB3348818B8189E75B89CA88934278
:10C3100028BF1346172B0A6938BF17230B814AB170
:10C32000C97A39B140F677210091ADF804306946F9
:10C33000204690470023638171E71A7A0B694A739C
:10C34000002B3FF46CAF4DF67A218DF8050000917B
:10C350008DF804209BE7197A237B994228BF194660
:10C36000AFE711283FF467AFFCF714FF054B08490E
:10C37000024606481B1ADB081B0443F00100FBF7CA
:10C380001BFB58E718D6020078DF0200C8D5020070
:10C3900047DF0200B0DF704766DF704710B500214D
:10C3A00004464088FFF7F8FF034608B9237210BD22
:10C3B000112801D10123F9E76368BDE8104018474F
:10C3C00060B159B10378DE2B0AD00B684360DE23DD
:10C3D00003704FF6FF734380002070470E207047B4
:10C3E0000820704728B10378DE2B04D1418000205B
:10C3F00070470E20704708207047F0B5054685B09D
:10C400000C46F1B1E8B10B78DE2B1AD182884B884B
:10C410009A4204D10B7A13B10846FFF7BFFF2B886D
:10C42000112B32D0512B0ED0012B0AD12B7A012B9C
:10C4300007D1A9886288914203D123722046FFF771
:10C44000ADFF05B0F0BDAE886388B342F9D1AF79D6
:10C45000022FF6D1AD7B2B1F022BF2D80021102228
:10C46000684600F0D5FC052D14BF4FF4C0730023BF
:10C47000694630468DF80070ADF80430FFF78AFF4A
:10C480000028DED063689847DBE76388AA889A4271
:10C4900004BF4FF6FF736380D3E7A8DF7047ADDFBB
:10C4A0007047AEDF704762DF704770B505468AB0EF
:10C4B0000C46002962D0002860D00388502B37D06A
:10C4C000572B72D0102B59D181886069002601AAA0
:10C4D0000196FFF740FD082231460DEB020000F007
:10C4E00097FC02232189A888CDF80CD002AA0293D8
:10C4F000FFF7D5FF002841D1A369002B3ED0039858
:10C50000FFF767FD002839D0019B0BB101221A709B
:10C510001822002104A800F07BFC02238DF81030C3
:10C52000AB88ADF81830019B05940793A36923E00D
:10C530008188606902AAFFF70EFD1822002104A875
:10C5400000F066FCAB882189ADF81830EB88029AC0
:10C5500005949942079218D12E8A022E15D16AB1FC
:10C5600005F11200FFF735FD029B48B101221A7058
:10C570008DF81060A3690BB104A898470AB070BD8C
:10C58000187003238DF81030F4E7A2899A42F5D190
:10C59000A369002BF2D000228DF8102005F11202C1
:10C5A00008922A8AADF82420E6E78188606902AA09
:10C5B000FFF7D1FC01460028E0D1029B1B78002B3D
:10C5C000DCD0A369002BD9D0182204A800F020FCED
:10C5D00001238DF81030AB88ADF818300594029B1C
:10C5E000A3E70000F0B53A4B8FB002AD04460A460F
:10C5F00003F1100C2F46186859682E4603C60833FD
:10C6000063453546F7D1002C5FD0002A5DD0136812
:10C61000A36121463846FFF746FF002853D1224642
:10C62000012512F8023B8DF8063001A92846ADF825
:10C630000450FFF732FF002845D10146202206A80A
:10C6400000F0E6FB22460223ADF8183012F80C3B4E
:10C650008DF81A30BDF824301E4E6088079623F4FA
:10C660004F6323F00F0343F440632B4306A9ADF857
:10C6700024308DF829508DF82A50FFF7AEFC10BBFE
:10C680000146202206A800F0C3FB22460323ADF892
:10C69000183012F8043B8DF81A30BDF82430608849
:10C6A000079623F4875323F01F0343F480532B434F
:10C6B000ADF8243006A940F201138DF82950ADF8E9
:10C6C0002A30FFF78AFC0FB0F0BD0E20FBE700BF59
:10C6D000BCDF0200F4000100F0B50F4687B016463B
:10C6E0001C46054618B3406901AA1946FFF733FCFA
:10C6F000D8B94FF6FF739C421BD0019BCBB11B787E
:10C70000CBB13388F42B18D80146102202A800F0D0
:10C710007FFBAB88ADF8083002A901232046CDE9A4
:10C7200004678DF80A30FFF7BCFE07B0F0BD0E209D
:10C73000FBE70520F9E70820F7E70720F5E710DF1A
:10C740007047000013B5044609496846FCF7C7FC6A
:10C75000019808B902B010BDD0E9002120469047E9
:10C7600018B16846FCF7C5FCF2E71120F2E700BFFC
:10C77000D8DF020013B5044607496846FCF7AFFC52
:10C78000019B0BB902B010BD2046D3E900219047B0
:10C790006846FCF7AEFCF3E7F0DF02000B4991F8C6
:10C7A00016335A09EC231341DB0706D5084B9A6868
:10C7B0003AB94FF480030B60704742F20200FBF776
:10C7C000D1BB1A6842F480021A60704700E100E0B1
:10C7D00028320020F7B5194F3C7864BB184E01256C
:10C7E00020463570FFF7AEFF112821D02046FFF715
:10C7F000C1FF144B8DF80340186801900DF1030040
:10C80000FBF7DEFE104901A8FFF799FF0446B0FAD6
:10C8100080F0400938709DF80300FBF7F5FE3CB945
:10C820000A4B34701C70FFF7B9FF2846FFF7A2FFD0
:10C83000204603B0F0BD0824FAE700BF7D3E00208B
:10C840007C3E0020D4DF0200817F02007E3E00207B
:10C85000014B1878704700BF7D3E002007B508499E
:10C860006846FCF73CFC019B13B903B05DF804FB80
:10C87000D3E9002090476846FCF73BFCF3E700BF94
:10C88000E4DF0200FFF7EABF60DF704769DF70474F
:10C8900061DF704730B5114DADF5017D4FF4FA748D
:10C8A0000DF1020103A8ADF80240FFF7F1FF70B9E6
:10C8B000294601A8FCF713FC029B002BF0D003A82B
:10C8C000D3E90021904701A8FCF713FCF4E7052801
:10C8D00001D0FBF747FB0DF5017D30BD78E202008A
:10C8E000024B1B780BB1FFF7D5BF70477F3E00208E
:10C8F00030B5054685B00C46002900F0B5805B4B8D
:10C900000B600C22002101A800F082FA01238DF8AF
:10C91000063022688DF80450062301A92020ADF8C6
:10C920000830FFF7B3FF60B1FCF734FC504B5149BE
:10C93000024651481B1ADB081B0443F00100FBF7B9
:10C940003BF80C22002101A800F062FA01238DF8C7
:10C9500005302268002301A94020ADF80630FFF71A
:10C9600095FF60B1FCF716FC414B44490246424832
:10C970001B1ADB081B0443F00100FBF71DF80C2217
:10C98000002101A800F044FAF72322688DF8045032
:10C9900001A92320ADF80630FFF778FF60B1FCF75E
:10C9A000F9FB334B3649024633481B1ADB081B049C
:10C9B00043F00100FBF700F80C22002101A800F071
:10C9C00027FA012022688DF8040001A9FFF75EFF15
:10C9D00060B1FCF7DFFB264B2A49024626481B1AAA
:10C9E000DB081B0443F00100FAF7E6FF0C220021EC
:10C9F00001A800F00DFA4FF4B0632268019301A979
:10CA0000A120FFF743FF60B1FCF7C4FB184B1E49A0
:10CA1000024619481B1ADB081B0443F00100FAF711
:10CA2000CBFF0C22002101A800F0F2F99DF80430A0
:10CA300022686FF3000301A9A0208DF80430FFF7EE
:10CA400025FF034668B1FCF7A5FB094B0F490246D9
:10CA500009481B1ADB081B0443F00100FAF7ACFF7E
:10CA60000023184605B030BD0E23FAE7E82A00205F
:10CA700028D60200FCDF0200C8D5020042E0020016
:10CA80008EE00200D5E0020021E1020072E1020026
:10CA900073B505460668FFF7F7FE2B68B3420446F8
:10CAA0001DD91A481A4B1B491B1ADB081B0443F0FB
:10CAB00002000190FAF77CFF2B6817490198324673
:10CAC000FAF783FF4FF080532A68D3F80C311349EB
:10CAD00001989B0203F100539A1AFAF76DFF2CB9E3
